{
  "_format": "hh-sol-artifact-1",
  "contractName": "AttestationMinter",
  "sourceName": "contracts/AttestationMinter.sol",
  "abi": [
    {
      "inputs": [
        {
          "internalType": "address",
          "name": "_verifier",
          "type": "address"
        }
      ],
      "stateMutability": "nonpayable",
      "type": "constructor"
    },
    {
      "anonymous": false,
      "inputs": [
        {
          "indexed": true,
          "internalType": "address",
          "name": "owner",
          "type": "address"
        },
        {
          "indexed": true,
          "internalType": "address",
          "name": "approved",
          "type": "address"
        },
        {
          "indexed": true,
          "internalType": "uint256",
          "name": "tokenId",
          "type": "uint256"
        }
      ],
      "name": "Approval",
      "type": "event"
    },
    {
      "anonymous": false,
      "inputs": [
        {
          "indexed": true,
          "internalType": "address",
          "name": "owner",
          "type": "address"
        },
        {
          "indexed": true,
          "internalType": "address",
          "name": "operator",
          "type": "address"
        },
        {
          "indexed": false,
          "internalType": "bool",
          "name": "approved",
          "type": "bool"
        }
      ],
      "name": "ApprovalForAll",
      "type": "event"
    },
    {
      "anonymous": false,
      "inputs": [
        {
          "indexed": true,
          "internalType": "address",
          "name": "from",
          "type": "address"
        },
        {
          "indexed": true,
          "internalType": "address",
          "name": "to",
          "type": "address"
        },
        {
          "indexed": true,
          "internalType": "uint256",
          "name": "tokenId",
          "type": "uint256"
        }
      ],
      "name": "Transfer",
      "type": "event"
    },
    {
      "inputs": [
        {
          "internalType": "address",
          "name": "to",
          "type": "address"
        },
        {
          "internalType": "uint256",
          "name": "tokenId",
          "type": "uint256"
        }
      ],
      "name": "approve",
      "outputs": [],
      "stateMutability": "nonpayable",
      "type": "function"
    },
    {
      "inputs": [
        {
          "internalType": "address",
          "name": "owner",
          "type": "address"
        }
      ],
      "name": "balanceOf",
      "outputs": [
        {
          "internalType": "uint256",
          "name": "",
          "type": "uint256"
        }
      ],
      "stateMutability": "view",
      "type": "function"
    },
    {
      "inputs": [
        {
          "internalType": "uint256",
          "name": "tokenId",
          "type": "uint256"
        }
      ],
      "name": "getApproved",
      "outputs": [
        {
          "internalType": "address",
          "name": "",
          "type": "address"
        }
      ],
      "stateMutability": "view",
      "type": "function"
    },
    {
      "inputs": [
        {
          "internalType": "address",
          "name": "owner",
          "type": "address"
        },
        {
          "internalType": "address",
          "name": "operator",
          "type": "address"
        }
      ],
      "name": "isApprovedForAll",
      "outputs": [
        {
          "internalType": "bool",
          "name": "",
          "type": "bool"
        }
      ],
      "stateMutability": "view",
      "type": "function"
    },
    {
      "inputs": [
        {
          "internalType": "uint256[2]",
          "name": "_a",
          "type": "uint256[2]"
        },
        {
          "internalType": "uint256[2][2]",
          "name": "_b",
          "type": "uint256[2][2]"
        },
        {
          "internalType": "uint256[2]",
          "name": "_c",
          "type": "uint256[2]"
        },
        {
          "internalType": "uint256",
          "name": "_merkleRoot",
          "type": "uint256"
        },
        {
          "internalType": "uint256",
          "name": "_nullifier",
          "type": "uint256"
        }
      ],
      "name": "mint",
      "outputs": [],
      "stateMutability": "nonpayable",
      "type": "function"
    },
    {
      "inputs": [],
      "name": "name",
      "outputs": [
        {
          "internalType": "string",
          "name": "",
          "type": "string"
        }
      ],
      "stateMutability": "view",
      "type": "function"
    },
    {
      "inputs": [
        {
          "internalType": "uint256",
          "name": "",
          "type": "uint256"
        }
      ],
      "name": "nullifiers",
      "outputs": [
        {
          "internalType": "bool",
          "name": "",
          "type": "bool"
        }
      ],
      "stateMutability": "view",
      "type": "function"
    },
    {
      "inputs": [
        {
          "internalType": "uint256",
          "name": "tokenId",
          "type": "uint256"
        }
      ],
      "name": "ownerOf",
      "outputs": [
        {
          "internalType": "address",
          "name": "",
          "type": "address"
        }
      ],
      "stateMutability": "view",
      "type": "function"
    },
    {
      "inputs": [
        {
          "internalType": "address",
          "name": "from",
          "type": "address"
        },
        {
          "internalType": "address",
          "name": "to",
          "type": "address"
        },
        {
          "internalType": "uint256",
          "name": "tokenId",
          "type": "uint256"
        }
      ],
      "name": "safeTransferFrom",
      "outputs": [],
      "stateMutability": "nonpayable",
      "type": "function"
    },
    {
      "inputs": [
        {
          "internalType": "address",
          "name": "from",
          "type": "address"
        },
        {
          "internalType": "address",
          "name": "to",
          "type": "address"
        },
        {
          "internalType": "uint256",
          "name": "tokenId",
          "type": "uint256"
        },
        {
          "internalType": "bytes",
          "name": "_data",
          "type": "bytes"
        }
      ],
      "name": "safeTransferFrom",
      "outputs": [],
      "stateMutability": "nonpayable",
      "type": "function"
    },
    {
      "inputs": [
        {
          "internalType": "address",
          "name": "operator",
          "type": "address"
        },
        {
          "internalType": "bool",
          "name": "approved",
          "type": "bool"
        }
      ],
      "name": "setApprovalForAll",
      "outputs": [],
      "stateMutability": "nonpayable",
      "type": "function"
    },
    {
      "inputs": [
        {
          "internalType": "bytes4",
          "name": "interfaceId",
          "type": "bytes4"
        }
      ],
      "name": "supportsInterface",
      "outputs": [
        {
          "internalType": "bool",
          "name": "",
          "type": "bool"
        }
      ],
      "stateMutability": "view",
      "type": "function"
    },
    {
      "inputs": [],
      "name": "symbol",
      "outputs": [
        {
          "internalType": "string",
          "name": "",
          "type": "string"
        }
      ],
      "stateMutability": "view",
      "type": "function"
    },
    {
      "inputs": [
        {
          "internalType": "uint256",
          "name": "tokenId",
          "type": "uint256"
        }
      ],
      "name": "tokenURI",
      "outputs": [
        {
          "internalType": "string",
          "name": "",
          "type": "string"
        }
      ],
      "stateMutability": "view",
      "type": "function"
    },
    {
      "inputs": [
        {
          "internalType": "address",
          "name": "from",
          "type": "address"
        },
        {
          "internalType": "address",
          "name": "to",
          "type": "address"
        },
        {
          "internalType": "uint256",
          "name": "tokenId",
          "type": "uint256"
        }
      ],
      "name": "transferFrom",
      "outputs": [],
      "stateMutability": "nonpayable",
      "type": "function"
    },
    {
      "inputs": [],
      "name": "verifier",
      "outputs": [
        {
          "internalType": "contract IVerifier",
          "name": "",
          "type": "address"
        }
      ],
      "stateMutability": "view",
      "type": "function"
    }
  ],
  "bytecode": "0x60806040523480156200001157600080fd5b506040516200319138038062003191833981810160405281019062000037919062000239565b6040518060400160405280600f81526020017f44462057696e6e65722050726f6f6600000000000000000000000000000000008152506040518060400160405280600781526020017f444650524f4f46000000000000000000000000000000000000000000000000008152508160009080519060200190620000bb9291906200011f565b508060019080519060200190620000d49291906200011f565b50505080600860006101000a81548173ffffffffffffffffffffffffffffffffffffffff021916908373ffffffffffffffffffffffffffffffffffffffff16021790555050620002d0565b8280546200012d906200029a565b90600052602060002090601f0160209004810192826200015157600085556200019d565b82601f106200016c57805160ff19168380011785556200019d565b828001600101855582156200019d579182015b828111156200019c5782518255916020019190600101906200017f565b5b509050620001ac9190620001b0565b5090565b5b80821115620001cb576000816000905550600101620001b1565b5090565b600080fd5b600073ffffffffffffffffffffffffffffffffffffffff82169050919050565b60006200020182620001d4565b9050919050565b6200021381620001f4565b81146200021f57600080fd5b50565b600081519050620002338162000208565b92915050565b600060208284031215620002525762000251620001cf565b5b6000620002628482850162000222565b91505092915050565b7f4e487b7100000000000000000000000000000000000000000000000000000000600052602260045260246000fd5b60006002820490506001821680620002b357607f821691505b60208210811415620002ca57620002c96200026b565b5b50919050565b612eb180620002e06000396000f3fe608060405234801561001057600080fd5b50600436106101005760003560e01c806370a0823111610097578063b88d4fde11610066578063b88d4fde146102ab578063c87b56dd146102c7578063d21e82ab146102f7578063e985e9c51461032757610100565b806370a082311461022557806395d89b4114610255578063a22cb46514610273578063aee456191461028f57610100565b806323b872dd116100d357806323b872dd1461019f5780632b7ac3f3146101bb57806342842e0e146101d95780636352211e146101f557610100565b806301ffc9a71461010557806306fdde0314610135578063081812fc14610153578063095ea7b314610183575b600080fd5b61011f600480360381019061011a91906118cb565b610357565b60405161012c9190611913565b60405180910390f35b61013d610439565b60405161014a91906119c7565b60405180910390f35b61016d60048036038101906101689190611a1f565b6104cb565b60405161017a9190611a8d565b60405180910390f35b61019d60048036038101906101989190611ad4565b610550565b005b6101b960048036038101906101b49190611b14565b610668565b005b6101c36106c8565b6040516101d09190611bc6565b60405180910390f35b6101f360048036038101906101ee9190611b14565b6106ee565b005b61020f600480360381019061020a9190611a1f565b61070e565b60405161021c9190611a8d565b60405180910390f35b61023f600480360381019061023a9190611be1565b6107c0565b60405161024c9190611c1d565b60405180910390f35b61025d610878565b60405161026a91906119c7565b60405180910390f35b61028d60048036038101906102889190611c64565b61090a565b005b6102a960048036038101906102a49190611e8b565b610920565b005b6102c560048036038101906102c09190611fbe565b610ad2565b005b6102e160048036038101906102dc9190611a1f565b610b34565b6040516102ee91906119c7565b60405180910390f35b610311600480360381019061030c9190611a1f565b610bdb565b60405161031e9190611913565b60405180910390f35b610341600480360381019061033c9190612041565b610bfb565b60405161034e9190611913565b60405180910390f35b60007f80ac58cd000000000000000000000000000000000000000000000000000000007bffffffffffffffffffffffffffffffffffffffffffffffffffffffff1916827bffffffffffffffffffffffffffffffffffffffffffffffffffffffff1916148061042257507f5b5e139f000000000000000000000000000000000000000000000000000000007bffffffffffffffffffffffffffffffffffffffffffffffffffffffff1916827bffffffffffffffffffffffffffffffffffffffffffffffffffffffff1916145b80610432575061043182610c8f565b5b9050919050565b606060008054610448906120b0565b80601f0160208091040260200160405190810160405280929190818152602001828054610474906120b0565b80156104c15780601f10610496576101008083540402835291602001916104c1565b820191906000526020600020905b8154815290600101906020018083116104a457829003601f168201915b5050505050905090565b60006104d682610cf9565b610515576040517f08c379a000000000000000000000000000000000000000000000000000000000815260040161050c90612154565b60405180910390fd5b6004600083815260200190815260200160002060009054906101000a900473ffffffffffffffffffffffffffffffffffffffff169050919050565b600061055b8261070e565b90508073ffffffffffffffffffffffffffffffffffffffff168373ffffffffffffffffffffffffffffffffffffffff1614156105cc576040517f08c379a00000000000000000000000000000000000000000000000000000000081526004016105c3906121e6565b60405180910390fd5b8073ffffffffffffffffffffffffffffffffffffffff166105eb610d65565b73ffffffffffffffffffffffffffffffffffffffff16148061061a575061061981610614610d65565b610bfb565b5b610659576040517f08c379a000000000000000000000000000000000000000000000000000000000815260040161065090612278565b60405180910390fd5b6106638383610d6d565b505050565b610679610673610d65565b82610e26565b6106b8576040517f08c379a00000000000000000000000000000000000000000000000000000000081526004016106af9061230a565b60405180910390fd5b6106c3838383610f04565b505050565b600860009054906101000a900473ffffffffffffffffffffffffffffffffffffffff1681565b61070983838360405180602001604052806000815250610ad2565b505050565b6000806002600084815260200190815260200160002060009054906101000a900473ffffffffffffffffffffffffffffffffffffffff169050600073ffffffffffffffffffffffffffffffffffffffff168173ffffffffffffffffffffffffffffffffffffffff1614156107b7576040517f08c379a00000000000000000000000000000000000000000000000000000000081526004016107ae9061239c565b60405180910390fd5b80915050919050565b60008073ffffffffffffffffffffffffffffffffffffffff168273ffffffffffffffffffffffffffffffffffffffff161415610831576040517f08c379a00000000000000000000000000000000000000000000000000000000081526004016108289061242e565b60405180910390fd5b600360008373ffffffffffffffffffffffffffffffffffffffff1673ffffffffffffffffffffffffffffffffffffffff168152602001908152602001600020549050919050565b606060018054610887906120b0565b80601f01602080910402602001604051908101604052809291908181526020018280546108b3906120b0565b80156109005780601f106108d557610100808354040283529160200191610900565b820191906000526020600020905b8154815290600101906020018083116108e357829003601f168201915b5050505050905090565b61091c610915610d65565b838361116b565b5050565b600015156007600083815260200190815260200160002060009054906101000a900460ff16151514610987576040517f08c379a000000000000000000000000000000000000000000000000000000000815260040161097e9061249a565b60405180910390fd5b600860009054906101000a900473ffffffffffffffffffffffffffffffffffffffff1673ffffffffffffffffffffffffffffffffffffffff1663f5c9d69e8686866040518060400160405280888152602001878152506040518563ffffffff1660e01b81526004016109fc9493929190612663565b602060405180830381865afa158015610a19573d6000803e3d6000fd5b505050506040513d601f19601f82011682018060405250810190610a3d91906126bf565b610a7c576040517f08c379a0000000000000000000000000000000000000000000000000000000008152600401610a7390612738565b60405180910390fd5b60016007600083815260200190815260200160002060006101000a81548160ff021916908315150217905550610ab260066112d8565b6000610abe60066112ee565b9050610aca33826112fc565b505050505050565b610ae3610add610d65565b83610e26565b610b22576040517f08c379a0000000000000000000000000000000000000000000000000000000008152600401610b199061230a565b60405180910390fd5b610b2e848484846114d6565b50505050565b6060610b3f82610cf9565b610b7e576040517f08c379a0000000000000000000000000000000000000000000000000000000008152600401610b75906127ca565b60405180910390fd5b6000610b88611532565b90506000815111610ba85760405180602001604052806000815250610bd3565b80610bb284611549565b604051602001610bc3929190612826565b6040516020818303038152906040525b915050919050565b60076020528060005260406000206000915054906101000a900460ff1681565b6000600560008473ffffffffffffffffffffffffffffffffffffffff1673ffffffffffffffffffffffffffffffffffffffff16815260200190815260200160002060008373ffffffffffffffffffffffffffffffffffffffff1673ffffffffffffffffffffffffffffffffffffffff16815260200190815260200160002060009054906101000a900460ff16905092915050565b60007f01ffc9a7000000000000000000000000000000000000000000000000000000007bffffffffffffffffffffffffffffffffffffffffffffffffffffffff1916827bffffffffffffffffffffffffffffffffffffffffffffffffffffffff1916149050919050565b60008073ffffffffffffffffffffffffffffffffffffffff166002600084815260200190815260200160002060009054906101000a900473ffffffffffffffffffffffffffffffffffffffff1673ffffffffffffffffffffffffffffffffffffffff1614159050919050565b600033905090565b816004600083815260200190815260200160002060006101000a81548173ffffffffffffffffffffffffffffffffffffffff021916908373ffffffffffffffffffffffffffffffffffffffff160217905550808273ffffffffffffffffffffffffffffffffffffffff16610de08361070e565b73ffffffffffffffffffffffffffffffffffffffff167f8c5be1e5ebec7d5bd14f71427d1e84f3dd0314c0f7b2291e5b200ac8c7c3b92560405160405180910390a45050565b6000610e3182610cf9565b610e70576040517f08c379a0000000000000000000000000000000000000000000000000000000008152600401610e67906128bc565b60405180910390fd5b6000610e7b8361070e565b90508073ffffffffffffffffffffffffffffffffffffffff168473ffffffffffffffffffffffffffffffffffffffff161480610eea57508373ffffffffffffffffffffffffffffffffffffffff16610ed2846104cb565b73ffffffffffffffffffffffffffffffffffffffff16145b80610efb5750610efa8185610bfb565b5b91505092915050565b8273ffffffffffffffffffffffffffffffffffffffff16610f248261070e565b73ffffffffffffffffffffffffffffffffffffffff1614610f7a576040517f08c379a0000000000000000000000000000000000000000000000000000000008152600401610f719061294e565b60405180910390fd5b600073ffffffffffffffffffffffffffffffffffffffff168273ffffffffffffffffffffffffffffffffffffffff161415610fea576040517f08c379a0000000000000000000000000000000000000000000000000000000008152600401610fe1906129e0565b60405180910390fd5b610ff58383836116aa565b611000600082610d6d565b6001600360008573ffffffffffffffffffffffffffffffffffffffff1673ffffffffffffffffffffffffffffffffffffffff16815260200190815260200160002060008282546110509190612a2f565b925050819055506001600360008473ffffffffffffffffffffffffffffffffffffffff1673ffffffffffffffffffffffffffffffffffffffff16815260200190815260200160002060008282546110a79190612a63565b92505081905550816002600083815260200190815260200160002060006101000a81548173ffffffffffffffffffffffffffffffffffffffff021916908373ffffffffffffffffffffffffffffffffffffffff160217905550808273ffffffffffffffffffffffffffffffffffffffff168473ffffffffffffffffffffffffffffffffffffffff167fddf252ad1be2c89b69c2b068fc378daa952ba7f163c4a11628f55a4df523b3ef60405160405180910390a46111668383836116af565b505050565b8173ffffffffffffffffffffffffffffffffffffffff168373ffffffffffffffffffffffffffffffffffffffff1614156111da576040517f08c379a00000000000000000000000000000000000000000000000000000000081526004016111d190612b05565b60405180910390fd5b80600560008573ffffffffffffffffffffffffffffffffffffffff1673ffffffffffffffffffffffffffffffffffffffff16815260200190815260200160002060008473ffffffffffffffffffffffffffffffffffffffff1673ffffffffffffffffffffffffffffffffffffffff16815260200190815260200160002060006101000a81548160ff0219169083151502179055508173ffffffffffffffffffffffffffffffffffffffff168373ffffffffffffffffffffffffffffffffffffffff167f17307eab39ab6107e8899845ad3d59bd9653f200f220920489ca2b5937696c31836040516112cb9190611913565b60405180910390a3505050565b6001816000016000828254019250508190555050565b600081600001549050919050565b600073ffffffffffffffffffffffffffffffffffffffff168273ffffffffffffffffffffffffffffffffffffffff16141561136c576040517f08c379a000000000000000000000000000000000000000000000000000000000815260040161136390612b71565b60405180910390fd5b61137581610cf9565b156113b5576040517f08c379a00000000000000000000000000000000000000000000000000000000081526004016113ac90612bdd565b60405180910390fd5b6113c1600083836116aa565b6001600360008473ffffffffffffffffffffffffffffffffffffffff1673ffffffffffffffffffffffffffffffffffffffff16815260200190815260200160002060008282546114119190612a63565b92505081905550816002600083815260200190815260200160002060006101000a81548173ffffffffffffffffffffffffffffffffffffffff021916908373ffffffffffffffffffffffffffffffffffffffff160217905550808273ffffffffffffffffffffffffffffffffffffffff16600073ffffffffffffffffffffffffffffffffffffffff167fddf252ad1be2c89b69c2b068fc378daa952ba7f163c4a11628f55a4df523b3ef60405160405180910390a46114d2600083836116af565b5050565b6114e1848484610f04565b6114ed848484846116b4565b61152c576040517f08c379a000000000000000000000000000000000000000000000000000000000815260040161152390612c6f565b60405180910390fd5b50505050565b606060405180602001604052806000815250905090565b60606000821415611591576040518060400160405280600181526020017f300000000000000000000000000000000000000000000000000000000000000081525090506116a5565b600082905060005b600082146115c35780806115ac90612c8f565b915050600a826115bc9190612d07565b9150611599565b60008167ffffffffffffffff8111156115df576115de611ca9565b5b6040519080825280601f01601f1916602001820160405280156116115781602001600182028036833780820191505090505b5090505b6000851461169e5760018261162a9190612a2f565b9150600a856116399190612d38565b60306116459190612a63565b60f81b81838151811061165b5761165a612d69565b5b60200101907effffffffffffffffffffffffffffffffffffffffffffffffffffffffffffff1916908160001a905350600a856116979190612d07565b9450611615565b8093505050505b919050565b505050565b505050565b60006116d58473ffffffffffffffffffffffffffffffffffffffff1661183c565b1561182f578373ffffffffffffffffffffffffffffffffffffffff1663150b7a026116fe610d65565b8786866040518563ffffffff1660e01b81526004016117209493929190612ded565b6020604051808303816000875af192505050801561175c57506040513d601f19601f820116820180604052508101906117599190612e4e565b60015b6117df573d806000811461178c576040519150601f19603f3d011682016040523d82523d6000602084013e611791565b606091505b506000815114156117d7576040517f08c379a00000000000000000000000000000000000000000000000000000000081526004016117ce90612c6f565b60405180910390fd5b805181602001fd5b63150b7a0260e01b7bffffffffffffffffffffffffffffffffffffffffffffffffffffffff1916817bffffffffffffffffffffffffffffffffffffffffffffffffffffffff191614915050611834565b600190505b949350505050565b6000808273ffffffffffffffffffffffffffffffffffffffff163b119050919050565b6000604051905090565b600080fd5b600080fd5b60007fffffffff0000000000000000000000000000000000000000000000000000000082169050919050565b6118a881611873565b81146118b357600080fd5b50565b6000813590506118c58161189f565b92915050565b6000602082840312156118e1576118e0611869565b5b60006118ef848285016118b6565b91505092915050565b60008115159050919050565b61190d816118f8565b82525050565b60006020820190506119286000830184611904565b92915050565b600081519050919050565b600082825260208201905092915050565b60005b8381101561196857808201518184015260208101905061194d565b83811115611977576000848401525b50505050565b6000601f19601f8301169050919050565b60006119998261192e565b6119a38185611939565b93506119b381856020860161194a565b6119bc8161197d565b840191505092915050565b600060208201905081810360008301526119e1818461198e565b905092915050565b6000819050919050565b6119fc816119e9565b8114611a0757600080fd5b50565b600081359050611a19816119f3565b92915050565b600060208284031215611a3557611a34611869565b5b6000611a4384828501611a0a565b91505092915050565b600073ffffffffffffffffffffffffffffffffffffffff82169050919050565b6000611a7782611a4c565b9050919050565b611a8781611a6c565b82525050565b6000602082019050611aa26000830184611a7e565b92915050565b611ab181611a6c565b8114611abc57600080fd5b50565b600081359050611ace81611aa8565b92915050565b60008060408385031215611aeb57611aea611869565b5b6000611af985828601611abf565b9250506020611b0a85828601611a0a565b9150509250929050565b600080600060608486031215611b2d57611b2c611869565b5b6000611b3b86828701611abf565b9350506020611b4c86828701611abf565b9250506040611b5d86828701611a0a565b9150509250925092565b6000819050919050565b6000611b8c611b87611b8284611a4c565b611b67565b611a4c565b9050919050565b6000611b9e82611b71565b9050919050565b6000611bb082611b93565b9050919050565b611bc081611ba5565b82525050565b6000602082019050611bdb6000830184611bb7565b92915050565b600060208284031215611bf757611bf6611869565b5b6000611c0584828501611abf565b91505092915050565b611c17816119e9565b82525050565b6000602082019050611c326000830184611c0e565b92915050565b611c41816118f8565b8114611c4c57600080fd5b50565b600081359050611c5e81611c38565b92915050565b60008060408385031215611c7b57611c7a611869565b5b6000611c8985828601611abf565b9250506020611c9a85828601611c4f565b9150509250929050565b600080fd5b7f4e487b7100000000000000000000000000000000000000000000000000000000600052604160045260246000fd5b611ce18261197d565b810181811067ffffffffffffffff82111715611d0057611cff611ca9565b5b80604052505050565b6000611d1361185f565b9050611d1f8282611cd8565b919050565b600067ffffffffffffffff821115611d3f57611d3e611ca9565b5b602082029050919050565b600080fd5b6000611d62611d5d84611d24565b611d09565b90508060208402830185811115611d7c57611d7b611d4a565b5b835b81811015611da55780611d918882611a0a565b845260208401935050602081019050611d7e565b5050509392505050565b600082601f830112611dc457611dc3611ca4565b5b6002611dd1848285611d4f565b91505092915050565b600067ffffffffffffffff821115611df557611df4611ca9565b5b602082029050919050565b6000611e13611e0e84611dda565b611d09565b90508060408402830185811115611e2d57611e2c611d4a565b5b835b81811015611e565780611e428882611daf565b845260208401935050604081019050611e2f565b5050509392505050565b600082601f830112611e7557611e74611ca4565b5b6002611e82848285611e00565b91505092915050565b60008060008060006101408688031215611ea857611ea7611869565b5b6000611eb688828901611daf565b9550506040611ec788828901611e60565b94505060c0611ed888828901611daf565b935050610100611eea88828901611a0a565b925050610120611efc88828901611a0a565b9150509295509295909350565b600080fd5b600067ffffffffffffffff821115611f2957611f28611ca9565b5b611f328261197d565b9050602081019050919050565b82818337600083830152505050565b6000611f61611f5c84611f0e565b611d09565b905082815260208101848484011115611f7d57611f7c611f09565b5b611f88848285611f3f565b509392505050565b600082601f830112611fa557611fa4611ca4565b5b8135611fb5848260208601611f4e565b91505092915050565b60008060008060808587031215611fd857611fd7611869565b5b6000611fe687828801611abf565b9450506020611ff787828801611abf565b935050604061200887828801611a0a565b925050606085013567ffffffffffffffff8111156120295761202861186e565b5b61203587828801611f90565b91505092959194509250565b6000806040838503121561205857612057611869565b5b600061206685828601611abf565b925050602061207785828601611abf565b9150509250929050565b7f4e487b7100000000000000000000000000000000000000000000000000000000600052602260045260246000fd5b600060028204905060018216806120c857607f821691505b602082108114156120dc576120db612081565b5b50919050565b7f4552433732313a20617070726f76656420717565727920666f72206e6f6e657860008201527f697374656e7420746f6b656e0000000000000000000000000000000000000000602082015250565b600061213e602c83611939565b9150612149826120e2565b604082019050919050565b6000602082019050818103600083015261216d81612131565b9050919050565b7f4552433732313a20617070726f76616c20746f2063757272656e74206f776e6560008201527f7200000000000000000000000000000000000000000000000000000000000000602082015250565b60006121d0602183611939565b91506121db82612174565b604082019050919050565b600060208201905081810360008301526121ff816121c3565b9050919050565b7f4552433732313a20617070726f76652063616c6c6572206973206e6f74206f7760008201527f6e6572206e6f7220617070726f76656420666f7220616c6c0000000000000000602082015250565b6000612262603883611939565b915061226d82612206565b604082019050919050565b6000602082019050818103600083015261229181612255565b9050919050565b7f4552433732313a207472616e736665722063616c6c6572206973206e6f74206f60008201527f776e6572206e6f7220617070726f766564000000000000000000000000000000602082015250565b60006122f4603183611939565b91506122ff82612298565b604082019050919050565b60006020820190508181036000830152612323816122e7565b9050919050565b7f4552433732313a206f776e657220717565727920666f72206e6f6e657869737460008201527f656e7420746f6b656e0000000000000000000000000000000000000000000000602082015250565b6000612386602983611939565b91506123918261232a565b604082019050919050565b600060208201905081810360008301526123b581612379565b9050919050565b7f4552433732313a2062616c616e636520717565727920666f7220746865207a6560008201527f726f206164647265737300000000000000000000000000000000000000000000602082015250565b6000612418602a83611939565b9150612423826123bc565b604082019050919050565b600060208201905081810360008301526124478161240b565b9050919050565b7f6e756c6c696669657220686173206265656e20616c726561647920757365642e600082015250565b6000612484602083611939565b915061248f8261244e565b602082019050919050565b600060208201905081810360008301526124b381612477565b9050919050565b600060029050919050565b600081905092915050565b6000819050919050565b6124e3816119e9565b82525050565b60006124f583836124da565b60208301905092915050565b6000602082019050919050565b612517816124ba565b61252181846124c5565b925061252c826124d0565b8060005b8381101561255d57815161254487826124e9565b965061254f83612501565b925050600181019050612530565b505050505050565b600060029050919050565b600081905092915050565b6000819050919050565b600081905092915050565b612599816124ba565b6125a38184612585565b92506125ae826124d0565b8060005b838110156125df5781516125c687826124e9565b96506125d183612501565b9250506001810190506125b2565b505050505050565b60006125f38383612590565b60408301905092915050565b6000602082019050919050565b61261581612565565b61261f8184612570565b925061262a8261257b565b8060005b8381101561265b57815161264287826125e7565b965061264d836125ff565b92505060018101905061262e565b505050505050565b600061014082019050612679600083018761250e565b612686604083018661260c565b61269360c083018561250e565b6126a161010083018461250e565b95945050505050565b6000815190506126b981611c38565b92915050565b6000602082840312156126d5576126d4611869565b5b60006126e3848285016126aa565b91505092915050565b7f4174746573746174696f6e4d696e7465723a20696e76616c69642070726f6f66600082015250565b6000612722602083611939565b915061272d826126ec565b602082019050919050565b6000602082019050818103600083015261275181612715565b9050919050565b7f4552433732314d657461646174613a2055524920717565727920666f72206e6f60008201527f6e6578697374656e7420746f6b656e0000000000000000000000000000000000602082015250565b60006127b4602f83611939565b91506127bf82612758565b604082019050919050565b600060208201905081810360008301526127e3816127a7565b9050919050565b600081905092915050565b60006128008261192e565b61280a81856127ea565b935061281a81856020860161194a565b80840191505092915050565b600061283282856127f5565b915061283e82846127f5565b91508190509392505050565b7f4552433732313a206f70657261746f7220717565727920666f72206e6f6e657860008201527f697374656e7420746f6b656e0000000000000000000000000000000000000000602082015250565b60006128a6602c83611939565b91506128b18261284a565b604082019050919050565b600060208201905081810360008301526128d581612899565b9050919050565b7f4552433732313a207472616e736665722066726f6d20696e636f72726563742060008201527f6f776e6572000000000000000000000000000000000000000000000000000000602082015250565b6000612938602583611939565b9150612943826128dc565b604082019050919050565b600060208201905081810360008301526129678161292b565b9050919050565b7f4552433732313a207472616e7366657220746f20746865207a65726f2061646460008201527f7265737300000000000000000000000000000000000000000000000000000000602082015250565b60006129ca602483611939565b91506129d58261296e565b604082019050919050565b600060208201905081810360008301526129f9816129bd565b9050919050565b7f4e487b7100000000000000000000000000000000000000000000000000000000600052601160045260246000fd5b6000612a3a826119e9565b9150612a45836119e9565b925082821015612a5857612a57612a00565b5b828203905092915050565b6000612a6e826119e9565b9150612a79836119e9565b9250827fffffffffffffffffffffffffffffffffffffffffffffffffffffffffffffffff03821115612aae57612aad612a00565b5b828201905092915050565b7f4552433732313a20617070726f766520746f2063616c6c657200000000000000600082015250565b6000612aef601983611939565b9150612afa82612ab9565b602082019050919050565b60006020820190508181036000830152612b1e81612ae2565b9050919050565b7f4552433732313a206d696e7420746f20746865207a65726f2061646472657373600082015250565b6000612b5b602083611939565b9150612b6682612b25565b602082019050919050565b60006020820190508181036000830152612b8a81612b4e565b9050919050565b7f4552433732313a20746f6b656e20616c7265616479206d696e74656400000000600082015250565b6000612bc7601c83611939565b9150612bd282612b91565b602082019050919050565b60006020820190508181036000830152612bf681612bba565b9050919050565b7f4552433732313a207472616e7366657220746f206e6f6e20455243373231526560008201527f63656976657220696d706c656d656e7465720000000000000000000000000000602082015250565b6000612c59603283611939565b9150612c6482612bfd565b604082019050919050565b60006020820190508181036000830152612c8881612c4c565b9050919050565b6000612c9a826119e9565b91507fffffffffffffffffffffffffffffffffffffffffffffffffffffffffffffffff821415612ccd57612ccc612a00565b5b600182019050919050565b7f4e487b7100000000000000000000000000000000000000000000000000000000600052601260045260246000fd5b6000612d12826119e9565b9150612d1d836119e9565b925082612d2d57612d2c612cd8565b5b828204905092915050565b6000612d43826119e9565b9150612d4e836119e9565b925082612d5e57612d5d612cd8565b5b828206905092915050565b7f4e487b7100000000000000000000000000000000000000000000000000000000600052603260045260246000fd5b600081519050919050565b600082825260208201905092915050565b6000612dbf82612d98565b612dc98185612da3565b9350612dd981856020860161194a565b612de28161197d565b840191505092915050565b6000608082019050612e026000830187611a7e565b612e0f6020830186611a7e565b612e1c6040830185611c0e565b8181036060830152612e2e8184612db4565b905095945050505050565b600081519050612e488161189f565b92915050565b600060208284031215612e6457612e63611869565b5b6000612e7284828501612e39565b9150509291505056fea264697066735822122004e460c807eea21357098337e6b29692d441016d53da1e4fdcd5a0f9dfbcb78b64736f6c634300080a0033",
  "linkReferences": {},
  "deployedLinkReferences": {}
}