{
  "_format": "hh-sol-artifact-1",
  "contractName": "AttestationMinter",
  "sourceName": "contracts/AttestationMinter.sol",
  "abi": [
    {
      "inputs": [
        {
          "internalType": "address",
          "name": "_verifier",
          "type": "address"
        }
      ],
      "stateMutability": "nonpayable",
      "type": "constructor"
    },
    {
      "anonymous": false,
      "inputs": [
        {
          "indexed": true,
          "internalType": "address",
          "name": "owner",
          "type": "address"
        },
        {
          "indexed": true,
          "internalType": "address",
          "name": "approved",
          "type": "address"
        },
        {
          "indexed": true,
          "internalType": "uint256",
          "name": "tokenId",
          "type": "uint256"
        }
      ],
      "name": "Approval",
      "type": "event"
    },
    {
      "anonymous": false,
      "inputs": [
        {
          "indexed": true,
          "internalType": "address",
          "name": "owner",
          "type": "address"
        },
        {
          "indexed": true,
          "internalType": "address",
          "name": "operator",
          "type": "address"
        },
        {
          "indexed": false,
          "internalType": "bool",
          "name": "approved",
          "type": "bool"
        }
      ],
      "name": "ApprovalForAll",
      "type": "event"
    },
    {
      "anonymous": false,
      "inputs": [
        {
          "indexed": true,
          "internalType": "address",
          "name": "from",
          "type": "address"
        },
        {
          "indexed": true,
          "internalType": "address",
          "name": "to",
          "type": "address"
        },
        {
          "indexed": true,
          "internalType": "uint256",
          "name": "tokenId",
          "type": "uint256"
        }
      ],
      "name": "Transfer",
      "type": "event"
    },
    {
      "inputs": [
        {
          "internalType": "address",
          "name": "to",
          "type": "address"
        },
        {
          "internalType": "uint256",
          "name": "tokenId",
          "type": "uint256"
        }
      ],
      "name": "approve",
      "outputs": [],
      "stateMutability": "nonpayable",
      "type": "function"
    },
    {
      "inputs": [
        {
          "internalType": "address",
          "name": "owner",
          "type": "address"
        }
      ],
      "name": "balanceOf",
      "outputs": [
        {
          "internalType": "uint256",
          "name": "",
          "type": "uint256"
        }
      ],
      "stateMutability": "view",
      "type": "function"
    },
    {
      "inputs": [
        {
          "internalType": "uint256",
          "name": "tokenId",
          "type": "uint256"
        }
      ],
      "name": "getApproved",
      "outputs": [
        {
          "internalType": "address",
          "name": "",
          "type": "address"
        }
      ],
      "stateMutability": "view",
      "type": "function"
    },
    {
      "inputs": [
        {
          "internalType": "address",
          "name": "owner",
          "type": "address"
        },
        {
          "internalType": "address",
          "name": "operator",
          "type": "address"
        }
      ],
      "name": "isApprovedForAll",
      "outputs": [
        {
          "internalType": "bool",
          "name": "",
          "type": "bool"
        }
      ],
      "stateMutability": "view",
      "type": "function"
    },
    {
      "inputs": [
        {
          "internalType": "uint256[2]",
          "name": "_a",
          "type": "uint256[2]"
        },
        {
          "internalType": "uint256[2][2]",
          "name": "_b",
          "type": "uint256[2][2]"
        },
        {
          "internalType": "uint256[2]",
          "name": "_c",
          "type": "uint256[2]"
        },
        {
          "internalType": "uint256",
          "name": "_merkleRoot",
          "type": "uint256"
        },
        {
          "internalType": "uint256",
          "name": "_nullifier",
          "type": "uint256"
        }
      ],
      "name": "mint",
      "outputs": [],
      "stateMutability": "nonpayable",
      "type": "function"
    },
    {
      "inputs": [],
      "name": "name",
      "outputs": [
        {
          "internalType": "string",
          "name": "",
          "type": "string"
        }
      ],
      "stateMutability": "view",
      "type": "function"
    },
    {
      "inputs": [
        {
          "internalType": "uint256",
          "name": "",
          "type": "uint256"
        }
      ],
      "name": "nullifiers",
      "outputs": [
        {
          "internalType": "bool",
          "name": "",
          "type": "bool"
        }
      ],
      "stateMutability": "view",
      "type": "function"
    },
    {
      "inputs": [
        {
          "internalType": "uint256",
          "name": "tokenId",
          "type": "uint256"
        }
      ],
      "name": "ownerOf",
      "outputs": [
        {
          "internalType": "address",
          "name": "",
          "type": "address"
        }
      ],
      "stateMutability": "view",
      "type": "function"
    },
    {
      "inputs": [
        {
          "internalType": "address",
          "name": "from",
          "type": "address"
        },
        {
          "internalType": "address",
          "name": "to",
          "type": "address"
        },
        {
          "internalType": "uint256",
          "name": "tokenId",
          "type": "uint256"
        }
      ],
      "name": "safeTransferFrom",
      "outputs": [],
      "stateMutability": "nonpayable",
      "type": "function"
    },
    {
      "inputs": [
        {
          "internalType": "address",
          "name": "from",
          "type": "address"
        },
        {
          "internalType": "address",
          "name": "to",
          "type": "address"
        },
        {
          "internalType": "uint256",
          "name": "tokenId",
          "type": "uint256"
        },
        {
          "internalType": "bytes",
          "name": "_data",
          "type": "bytes"
        }
      ],
      "name": "safeTransferFrom",
      "outputs": [],
      "stateMutability": "nonpayable",
      "type": "function"
    },
    {
      "inputs": [
        {
          "internalType": "address",
          "name": "operator",
          "type": "address"
        },
        {
          "internalType": "bool",
          "name": "approved",
          "type": "bool"
        }
      ],
      "name": "setApprovalForAll",
      "outputs": [],
      "stateMutability": "nonpayable",
      "type": "function"
    },
    {
      "inputs": [
        {
          "internalType": "bytes4",
          "name": "interfaceId",
          "type": "bytes4"
        }
      ],
      "name": "supportsInterface",
      "outputs": [
        {
          "internalType": "bool",
          "name": "",
          "type": "bool"
        }
      ],
      "stateMutability": "view",
      "type": "function"
    },
    {
      "inputs": [],
      "name": "symbol",
      "outputs": [
        {
          "internalType": "string",
          "name": "",
          "type": "string"
        }
      ],
      "stateMutability": "view",
      "type": "function"
    },
    {
      "inputs": [
        {
          "internalType": "uint256",
          "name": "tokenId",
          "type": "uint256"
        }
      ],
      "name": "tokenURI",
      "outputs": [
        {
          "internalType": "string",
          "name": "",
          "type": "string"
        }
      ],
      "stateMutability": "view",
      "type": "function"
    },
    {
      "inputs": [
        {
          "internalType": "address",
          "name": "from",
          "type": "address"
        },
        {
          "internalType": "address",
          "name": "to",
          "type": "address"
        },
        {
          "internalType": "uint256",
          "name": "tokenId",
          "type": "uint256"
        }
      ],
      "name": "transferFrom",
      "outputs": [],
      "stateMutability": "nonpayable",
      "type": "function"
    },
    {
      "inputs": [],
      "name": "verifier",
      "outputs": [
        {
          "internalType": "contract IVerifier",
          "name": "",
          "type": "address"
        }
      ],
      "stateMutability": "view",
      "type": "function"
    }
  ],
  "bytecode": "0x60806040523480156200001157600080fd5b5060405162002df838038062002df8833981810160405281019062000037919062000239565b6040518060400160405280600581526020017f50726f6f660000000000000000000000000000000000000000000000000000008152506040518060400160405280600581526020017f50524f4f460000000000000000000000000000000000000000000000000000008152508160009080519060200190620000bb9291906200011f565b508060019080519060200190620000d49291906200011f565b50505080600860006101000a81548173ffffffffffffffffffffffffffffffffffffffff021916908373ffffffffffffffffffffffffffffffffffffffff16021790555050620002d0565b8280546200012d906200029a565b90600052602060002090601f0160209004810192826200015157600085556200019d565b82601f106200016c57805160ff19168380011785556200019d565b828001600101855582156200019d579182015b828111156200019c5782518255916020019190600101906200017f565b5b509050620001ac9190620001b0565b5090565b5b80821115620001cb576000816000905550600101620001b1565b5090565b600080fd5b600073ffffffffffffffffffffffffffffffffffffffff82169050919050565b60006200020182620001d4565b9050919050565b6200021381620001f4565b81146200021f57600080fd5b50565b600081519050620002338162000208565b92915050565b600060208284031215620002525762000251620001cf565b5b6000620002628482850162000222565b91505092915050565b7f4e487b7100000000000000000000000000000000000000000000000000000000600052602260045260246000fd5b60006002820490506001821680620002b357607f821691505b60208210811415620002ca57620002c96200026b565b5b50919050565b612b1880620002e06000396000f3fe608060405234801561001057600080fd5b50600436106101005760003560e01c806370a0823111610097578063b88d4fde11610066578063b88d4fde146102ab578063c87b56dd146102c7578063d21e82ab146102f7578063e985e9c51461032757610100565b806370a082311461022557806395d89b4114610255578063a22cb46514610273578063aee456191461028f57610100565b806323b872dd116100d357806323b872dd1461019f5780632b7ac3f3146101bb57806342842e0e146101d95780636352211e146101f557610100565b806301ffc9a71461010557806306fdde0314610135578063081812fc14610153578063095ea7b314610183575b600080fd5b61011f600480360381019061011a91906117aa565b610357565b60405161012c91906117f2565b60405180910390f35b61013d610439565b60405161014a91906118a6565b60405180910390f35b61016d600480360381019061016891906118fe565b6104cb565b60405161017a919061196c565b60405180910390f35b61019d600480360381019061019891906119b3565b610550565b005b6101b960048036038101906101b491906119f3565b610668565b005b6101c36106c8565b6040516101d09190611aa5565b60405180910390f35b6101f360048036038101906101ee91906119f3565b6106ee565b005b61020f600480360381019061020a91906118fe565b61070e565b60405161021c919061196c565b60405180910390f35b61023f600480360381019061023a9190611ac0565b6107c0565b60405161024c9190611afc565b60405180910390f35b61025d610878565b60405161026a91906118a6565b60405180910390f35b61028d60048036038101906102889190611b43565b61090a565b005b6102a960048036038101906102a49190611d6a565b610920565b005b6102c560048036038101906102c09190611e9d565b6109dd565b005b6102e160048036038101906102dc91906118fe565b610a3f565b6040516102ee91906118a6565b60405180910390f35b610311600480360381019061030c91906118fe565b610ae6565b60405161031e91906117f2565b60405180910390f35b610341600480360381019061033c9190611f20565b610b06565b60405161034e91906117f2565b60405180910390f35b60007f80ac58cd000000000000000000000000000000000000000000000000000000007bffffffffffffffffffffffffffffffffffffffffffffffffffffffff1916827bffffffffffffffffffffffffffffffffffffffffffffffffffffffff1916148061042257507f5b5e139f000000000000000000000000000000000000000000000000000000007bffffffffffffffffffffffffffffffffffffffffffffffffffffffff1916827bffffffffffffffffffffffffffffffffffffffffffffffffffffffff1916145b80610432575061043182610b9a565b5b9050919050565b60606000805461044890611f8f565b80601f016020809104026020016040519081016040528092919081815260200182805461047490611f8f565b80156104c15780601f10610496576101008083540402835291602001916104c1565b820191906000526020600020905b8154815290600101906020018083116104a457829003601f168201915b5050505050905090565b60006104d682610c04565b610515576040517f08c379a000000000000000000000000000000000000000000000000000000000815260040161050c90612033565b60405180910390fd5b6004600083815260200190815260200160002060009054906101000a900473ffffffffffffffffffffffffffffffffffffffff169050919050565b600061055b8261070e565b90508073ffffffffffffffffffffffffffffffffffffffff168373ffffffffffffffffffffffffffffffffffffffff1614156105cc576040517f08c379a00000000000000000000000000000000000000000000000000000000081526004016105c3906120c5565b60405180910390fd5b8073ffffffffffffffffffffffffffffffffffffffff166105eb610c70565b73ffffffffffffffffffffffffffffffffffffffff16148061061a575061061981610614610c70565b610b06565b5b610659576040517f08c379a000000000000000000000000000000000000000000000000000000000815260040161065090612157565b60405180910390fd5b6106638383610c78565b505050565b610679610673610c70565b82610d31565b6106b8576040517f08c379a00000000000000000000000000000000000000000000000000000000081526004016106af906121e9565b60405180910390fd5b6106c3838383610e0f565b505050565b600860009054906101000a900473ffffffffffffffffffffffffffffffffffffffff1681565b610709838383604051806020016040528060008152506109dd565b505050565b6000806002600084815260200190815260200160002060009054906101000a900473ffffffffffffffffffffffffffffffffffffffff169050600073ffffffffffffffffffffffffffffffffffffffff168173ffffffffffffffffffffffffffffffffffffffff1614156107b7576040517f08c379a00000000000000000000000000000000000000000000000000000000081526004016107ae9061227b565b60405180910390fd5b80915050919050565b60008073ffffffffffffffffffffffffffffffffffffffff168273ffffffffffffffffffffffffffffffffffffffff161415610831576040517f08c379a00000000000000000000000000000000000000000000000000000000081526004016108289061230d565b60405180910390fd5b600360008373ffffffffffffffffffffffffffffffffffffffff1673ffffffffffffffffffffffffffffffffffffffff168152602001908152602001600020549050919050565b60606001805461088790611f8f565b80601f01602080910402602001604051908101604052809291908181526020018280546108b390611f8f565b80156109005780601f106108d557610100808354040283529160200191610900565b820191906000526020600020905b8154815290600101906020018083116108e357829003601f168201915b5050505050905090565b61091c610915610c70565b838361106b565b5050565b600015156007600083815260200190815260200160002060009054906101000a900460ff16151514610987576040517f08c379a000000000000000000000000000000000000000000000000000000000815260040161097e9061239f565b60405180910390fd5b60016007600083815260200190815260200160002060006101000a81548160ff0219169083151502179055506109bd60066111d8565b60006109c960066111ee565b90506109d533826111fc565b505050505050565b6109ee6109e8610c70565b83610d31565b610a2d576040517f08c379a0000000000000000000000000000000000000000000000000000000008152600401610a24906121e9565b60405180910390fd5b610a39848484846113ca565b50505050565b6060610a4a82610c04565b610a89576040517f08c379a0000000000000000000000000000000000000000000000000000000008152600401610a8090612431565b60405180910390fd5b6000610a93611426565b90506000815111610ab35760405180602001604052806000815250610ade565b80610abd8461143d565b604051602001610ace92919061248d565b6040516020818303038152906040525b915050919050565b60076020528060005260406000206000915054906101000a900460ff1681565b6000600560008473ffffffffffffffffffffffffffffffffffffffff1673ffffffffffffffffffffffffffffffffffffffff16815260200190815260200160002060008373ffffffffffffffffffffffffffffffffffffffff1673ffffffffffffffffffffffffffffffffffffffff16815260200190815260200160002060009054906101000a900460ff16905092915050565b60007f01ffc9a7000000000000000000000000000000000000000000000000000000007bffffffffffffffffffffffffffffffffffffffffffffffffffffffff1916827bffffffffffffffffffffffffffffffffffffffffffffffffffffffff1916149050919050565b60008073ffffffffffffffffffffffffffffffffffffffff166002600084815260200190815260200160002060009054906101000a900473ffffffffffffffffffffffffffffffffffffffff1673ffffffffffffffffffffffffffffffffffffffff1614159050919050565b600033905090565b816004600083815260200190815260200160002060006101000a81548173ffffffffffffffffffffffffffffffffffffffff021916908373ffffffffffffffffffffffffffffffffffffffff160217905550808273ffffffffffffffffffffffffffffffffffffffff16610ceb8361070e565b73ffffffffffffffffffffffffffffffffffffffff167f8c5be1e5ebec7d5bd14f71427d1e84f3dd0314c0f7b2291e5b200ac8c7c3b92560405160405180910390a45050565b6000610d3c82610c04565b610d7b576040517f08c379a0000000000000000000000000000000000000000000000000000000008152600401610d7290612523565b60405180910390fd5b6000610d868361070e565b90508073ffffffffffffffffffffffffffffffffffffffff168473ffffffffffffffffffffffffffffffffffffffff161480610df557508373ffffffffffffffffffffffffffffffffffffffff16610ddd846104cb565b73ffffffffffffffffffffffffffffffffffffffff16145b80610e065750610e058185610b06565b5b91505092915050565b8273ffffffffffffffffffffffffffffffffffffffff16610e2f8261070e565b73ffffffffffffffffffffffffffffffffffffffff1614610e85576040517f08c379a0000000000000000000000000000000000000000000000000000000008152600401610e7c906125b5565b60405180910390fd5b600073ffffffffffffffffffffffffffffffffffffffff168273ffffffffffffffffffffffffffffffffffffffff161415610ef5576040517f08c379a0000000000000000000000000000000000000000000000000000000008152600401610eec90612647565b60405180910390fd5b610f0083838361159e565b610f0b600082610c78565b6001600360008573ffffffffffffffffffffffffffffffffffffffff1673ffffffffffffffffffffffffffffffffffffffff1681526020019081526020016000206000828254610f5b9190612696565b925050819055506001600360008473ffffffffffffffffffffffffffffffffffffffff1673ffffffffffffffffffffffffffffffffffffffff1681526020019081526020016000206000828254610fb291906126ca565b92505081905550816002600083815260200190815260200160002060006101000a81548173ffffffffffffffffffffffffffffffffffffffff021916908373ffffffffffffffffffffffffffffffffffffffff160217905550808273ffffffffffffffffffffffffffffffffffffffff168473ffffffffffffffffffffffffffffffffffffffff167fddf252ad1be2c89b69c2b068fc378daa952ba7f163c4a11628f55a4df523b3ef60405160405180910390a4505050565b8173ffffffffffffffffffffffffffffffffffffffff168373ffffffffffffffffffffffffffffffffffffffff1614156110da576040517f08c379a00000000000000000000000000000000000000000000000000000000081526004016110d19061276c565b60405180910390fd5b80600560008573ffffffffffffffffffffffffffffffffffffffff1673ffffffffffffffffffffffffffffffffffffffff16815260200190815260200160002060008473ffffffffffffffffffffffffffffffffffffffff1673ffffffffffffffffffffffffffffffffffffffff16815260200190815260200160002060006101000a81548160ff0219169083151502179055508173ffffffffffffffffffffffffffffffffffffffff168373ffffffffffffffffffffffffffffffffffffffff167f17307eab39ab6107e8899845ad3d59bd9653f200f220920489ca2b5937696c31836040516111cb91906117f2565b60405180910390a3505050565b6001816000016000828254019250508190555050565b600081600001549050919050565b600073ffffffffffffffffffffffffffffffffffffffff168273ffffffffffffffffffffffffffffffffffffffff16141561126c576040517f08c379a0000000000000000000000000000000000000000000000000000000008152600401611263906127d8565b60405180910390fd5b61127581610c04565b156112b5576040517f08c379a00000000000000000000000000000000000000000000000000000000081526004016112ac90612844565b60405180910390fd5b6112c16000838361159e565b6001600360008473ffffffffffffffffffffffffffffffffffffffff1673ffffffffffffffffffffffffffffffffffffffff168152602001908152602001600020600082825461131191906126ca565b92505081905550816002600083815260200190815260200160002060006101000a81548173ffffffffffffffffffffffffffffffffffffffff021916908373ffffffffffffffffffffffffffffffffffffffff160217905550808273ffffffffffffffffffffffffffffffffffffffff16600073ffffffffffffffffffffffffffffffffffffffff167fddf252ad1be2c89b69c2b068fc378daa952ba7f163c4a11628f55a4df523b3ef60405160405180910390a45050565b6113d5848484610e0f565b6113e1848484846115a3565b611420576040517f08c379a0000000000000000000000000000000000000000000000000000000008152600401611417906128d6565b60405180910390fd5b50505050565b606060405180602001604052806000815250905090565b60606000821415611485576040518060400160405280600181526020017f30000000000000000000000000000000000000000000000000000000000000008152509050611599565b600082905060005b600082146114b75780806114a0906128f6565b915050600a826114b0919061296e565b915061148d565b60008167ffffffffffffffff8111156114d3576114d2611b88565b5b6040519080825280601f01601f1916602001820160405280156115055781602001600182028036833780820191505090505b5090505b600085146115925760018261151e9190612696565b9150600a8561152d919061299f565b603061153991906126ca565b60f81b81838151811061154f5761154e6129d0565b5b60200101907effffffffffffffffffffffffffffffffffffffffffffffffffffffffffffff1916908160001a905350600a8561158b919061296e565b9450611509565b8093505050505b919050565b505050565b60006115c48473ffffffffffffffffffffffffffffffffffffffff1661172b565b1561171e578373ffffffffffffffffffffffffffffffffffffffff1663150b7a026115ed610c70565b8786866040518563ffffffff1660e01b815260040161160f9493929190612a54565b6020604051808303816000875af192505050801561164b57506040513d601f19601f820116820180604052508101906116489190612ab5565b60015b6116ce573d806000811461167b576040519150601f19603f3d011682016040523d82523d6000602084013e611680565b606091505b506000815114156116c6576040517f08c379a00000000000000000000000000000000000000000000000000000000081526004016116bd906128d6565b60405180910390fd5b805181602001fd5b63150b7a0260e01b7bffffffffffffffffffffffffffffffffffffffffffffffffffffffff1916817bffffffffffffffffffffffffffffffffffffffffffffffffffffffff191614915050611723565b600190505b949350505050565b600080823b905060008111915050919050565b6000604051905090565b600080fd5b600080fd5b60007fffffffff0000000000000000000000000000000000000000000000000000000082169050919050565b61178781611752565b811461179257600080fd5b50565b6000813590506117a48161177e565b92915050565b6000602082840312156117c0576117bf611748565b5b60006117ce84828501611795565b91505092915050565b60008115159050919050565b6117ec816117d7565b82525050565b600060208201905061180760008301846117e3565b92915050565b600081519050919050565b600082825260208201905092915050565b60005b8381101561184757808201518184015260208101905061182c565b83811115611856576000848401525b50505050565b6000601f19601f8301169050919050565b60006118788261180d565b6118828185611818565b9350611892818560208601611829565b61189b8161185c565b840191505092915050565b600060208201905081810360008301526118c0818461186d565b905092915050565b6000819050919050565b6118db816118c8565b81146118e657600080fd5b50565b6000813590506118f8816118d2565b92915050565b60006020828403121561191457611913611748565b5b6000611922848285016118e9565b91505092915050565b600073ffffffffffffffffffffffffffffffffffffffff82169050919050565b60006119568261192b565b9050919050565b6119668161194b565b82525050565b6000602082019050611981600083018461195d565b92915050565b6119908161194b565b811461199b57600080fd5b50565b6000813590506119ad81611987565b92915050565b600080604083850312156119ca576119c9611748565b5b60006119d88582860161199e565b92505060206119e9858286016118e9565b9150509250929050565b600080600060608486031215611a0c57611a0b611748565b5b6000611a1a8682870161199e565b9350506020611a2b8682870161199e565b9250506040611a3c868287016118e9565b9150509250925092565b6000819050919050565b6000611a6b611a66611a618461192b565b611a46565b61192b565b9050919050565b6000611a7d82611a50565b9050919050565b6000611a8f82611a72565b9050919050565b611a9f81611a84565b82525050565b6000602082019050611aba6000830184611a96565b92915050565b600060208284031215611ad657611ad5611748565b5b6000611ae48482850161199e565b91505092915050565b611af6816118c8565b82525050565b6000602082019050611b116000830184611aed565b92915050565b611b20816117d7565b8114611b2b57600080fd5b50565b600081359050611b3d81611b17565b92915050565b60008060408385031215611b5a57611b59611748565b5b6000611b688582860161199e565b9250506020611b7985828601611b2e565b9150509250929050565b600080fd5b7f4e487b7100000000000000000000000000000000000000000000000000000000600052604160045260246000fd5b611bc08261185c565b810181811067ffffffffffffffff82111715611bdf57611bde611b88565b5b80604052505050565b6000611bf261173e565b9050611bfe8282611bb7565b919050565b600067ffffffffffffffff821115611c1e57611c1d611b88565b5b602082029050919050565b600080fd5b6000611c41611c3c84611c03565b611be8565b90508060208402830185811115611c5b57611c5a611c29565b5b835b81811015611c845780611c7088826118e9565b845260208401935050602081019050611c5d565b5050509392505050565b600082601f830112611ca357611ca2611b83565b5b6002611cb0848285611c2e565b91505092915050565b600067ffffffffffffffff821115611cd457611cd3611b88565b5b602082029050919050565b6000611cf2611ced84611cb9565b611be8565b90508060408402830185811115611d0c57611d0b611c29565b5b835b81811015611d355780611d218882611c8e565b845260208401935050604081019050611d0e565b5050509392505050565b600082601f830112611d5457611d53611b83565b5b6002611d61848285611cdf565b91505092915050565b60008060008060006101408688031215611d8757611d86611748565b5b6000611d9588828901611c8e565b9550506040611da688828901611d3f565b94505060c0611db788828901611c8e565b935050610100611dc9888289016118e9565b925050610120611ddb888289016118e9565b9150509295509295909350565b600080fd5b600067ffffffffffffffff821115611e0857611e07611b88565b5b611e118261185c565b9050602081019050919050565b82818337600083830152505050565b6000611e40611e3b84611ded565b611be8565b905082815260208101848484011115611e5c57611e5b611de8565b5b611e67848285611e1e565b509392505050565b600082601f830112611e8457611e83611b83565b5b8135611e94848260208601611e2d565b91505092915050565b60008060008060808587031215611eb757611eb6611748565b5b6000611ec58782880161199e565b9450506020611ed68782880161199e565b9350506040611ee7878288016118e9565b925050606085013567ffffffffffffffff811115611f0857611f0761174d565b5b611f1487828801611e6f565b91505092959194509250565b60008060408385031215611f3757611f36611748565b5b6000611f458582860161199e565b9250506020611f568582860161199e565b9150509250929050565b7f4e487b7100000000000000000000000000000000000000000000000000000000600052602260045260246000fd5b60006002820490506001821680611fa757607f821691505b60208210811415611fbb57611fba611f60565b5b50919050565b7f4552433732313a20617070726f76656420717565727920666f72206e6f6e657860008201527f697374656e7420746f6b656e0000000000000000000000000000000000000000602082015250565b600061201d602c83611818565b915061202882611fc1565b604082019050919050565b6000602082019050818103600083015261204c81612010565b9050919050565b7f4552433732313a20617070726f76616c20746f2063757272656e74206f776e6560008201527f7200000000000000000000000000000000000000000000000000000000000000602082015250565b60006120af602183611818565b91506120ba82612053565b604082019050919050565b600060208201905081810360008301526120de816120a2565b9050919050565b7f4552433732313a20617070726f76652063616c6c6572206973206e6f74206f7760008201527f6e6572206e6f7220617070726f76656420666f7220616c6c0000000000000000602082015250565b6000612141603883611818565b915061214c826120e5565b604082019050919050565b6000602082019050818103600083015261217081612134565b9050919050565b7f4552433732313a207472616e736665722063616c6c6572206973206e6f74206f60008201527f776e6572206e6f7220617070726f766564000000000000000000000000000000602082015250565b60006121d3603183611818565b91506121de82612177565b604082019050919050565b60006020820190508181036000830152612202816121c6565b9050919050565b7f4552433732313a206f776e657220717565727920666f72206e6f6e657869737460008201527f656e7420746f6b656e0000000000000000000000000000000000000000000000602082015250565b6000612265602983611818565b915061227082612209565b604082019050919050565b6000602082019050818103600083015261229481612258565b9050919050565b7f4552433732313a2062616c616e636520717565727920666f7220746865207a6560008201527f726f206164647265737300000000000000000000000000000000000000000000602082015250565b60006122f7602a83611818565b91506123028261229b565b604082019050919050565b60006020820190508181036000830152612326816122ea565b9050919050565b7f4174746573746174696f6e4d696e7465723a206e756c6c69666965722068617360008201527f206265656e207573656400000000000000000000000000000000000000000000602082015250565b6000612389602a83611818565b91506123948261232d565b604082019050919050565b600060208201905081810360008301526123b88161237c565b9050919050565b7f4552433732314d657461646174613a2055524920717565727920666f72206e6f60008201527f6e6578697374656e7420746f6b656e0000000000000000000000000000000000602082015250565b600061241b602f83611818565b9150612426826123bf565b604082019050919050565b6000602082019050818103600083015261244a8161240e565b9050919050565b600081905092915050565b60006124678261180d565b6124718185612451565b9350612481818560208601611829565b80840191505092915050565b6000612499828561245c565b91506124a5828461245c565b91508190509392505050565b7f4552433732313a206f70657261746f7220717565727920666f72206e6f6e657860008201527f697374656e7420746f6b656e0000000000000000000000000000000000000000602082015250565b600061250d602c83611818565b9150612518826124b1565b604082019050919050565b6000602082019050818103600083015261253c81612500565b9050919050565b7f4552433732313a207472616e73666572206f6620746f6b656e2074686174206960008201527f73206e6f74206f776e0000000000000000000000000000000000000000000000602082015250565b600061259f602983611818565b91506125aa82612543565b604082019050919050565b600060208201905081810360008301526125ce81612592565b9050919050565b7f4552433732313a207472616e7366657220746f20746865207a65726f2061646460008201527f7265737300000000000000000000000000000000000000000000000000000000602082015250565b6000612631602483611818565b915061263c826125d5565b604082019050919050565b6000602082019050818103600083015261266081612624565b9050919050565b7f4e487b7100000000000000000000000000000000000000000000000000000000600052601160045260246000fd5b60006126a1826118c8565b91506126ac836118c8565b9250828210156126bf576126be612667565b5b828203905092915050565b60006126d5826118c8565b91506126e0836118c8565b9250827fffffffffffffffffffffffffffffffffffffffffffffffffffffffffffffffff0382111561271557612714612667565b5b828201905092915050565b7f4552433732313a20617070726f766520746f2063616c6c657200000000000000600082015250565b6000612756601983611818565b915061276182612720565b602082019050919050565b6000602082019050818103600083015261278581612749565b9050919050565b7f4552433732313a206d696e7420746f20746865207a65726f2061646472657373600082015250565b60006127c2602083611818565b91506127cd8261278c565b602082019050919050565b600060208201905081810360008301526127f1816127b5565b9050919050565b7f4552433732313a20746f6b656e20616c7265616479206d696e74656400000000600082015250565b600061282e601c83611818565b9150612839826127f8565b602082019050919050565b6000602082019050818103600083015261285d81612821565b9050919050565b7f4552433732313a207472616e7366657220746f206e6f6e20455243373231526560008201527f63656976657220696d706c656d656e7465720000000000000000000000000000602082015250565b60006128c0603283611818565b91506128cb82612864565b604082019050919050565b600060208201905081810360008301526128ef816128b3565b9050919050565b6000612901826118c8565b91507fffffffffffffffffffffffffffffffffffffffffffffffffffffffffffffffff82141561293457612933612667565b5b600182019050919050565b7f4e487b7100000000000000000000000000000000000000000000000000000000600052601260045260246000fd5b6000612979826118c8565b9150612984836118c8565b9250826129945761299361293f565b5b828204905092915050565b60006129aa826118c8565b91506129b5836118c8565b9250826129c5576129c461293f565b5b828206905092915050565b7f4e487b7100000000000000000000000000000000000000000000000000000000600052603260045260246000fd5b600081519050919050565b600082825260208201905092915050565b6000612a26826129ff565b612a308185612a0a565b9350612a40818560208601611829565b612a498161185c565b840191505092915050565b6000608082019050612a69600083018761195d565b612a76602083018661195d565b612a836040830185611aed565b8181036060830152612a958184612a1b565b905095945050505050565b600081519050612aaf8161177e565b92915050565b600060208284031215612acb57612aca611748565b5b6000612ad984828501612aa0565b9150509291505056fea26469706673582212204b54792416b3a4999f21a5bee8a45915965dfff52c69f1aece88b48523b0829f64736f6c634300080a0033",
  "linkReferences": {},
  "deployedLinkReferences": {}
}