{
  "_format": "hh-sol-artifact-1",
  "contractName": "AttestationMinter",
  "sourceName": "contracts/AttestationMinter.sol",
  "abi": [
    {
      "inputs": [
        {
          "internalType": "uint256",
          "name": "_treeRootHash",
          "type": "uint256"
        },
        {
          "internalType": "address",
          "name": "_verifier",
          "type": "address"
        }
      ],
      "stateMutability": "nonpayable",
      "type": "constructor"
    },
    {
      "anonymous": false,
      "inputs": [
        {
          "indexed": true,
          "internalType": "address",
          "name": "owner",
          "type": "address"
        },
        {
          "indexed": true,
          "internalType": "address",
          "name": "approved",
          "type": "address"
        },
        {
          "indexed": true,
          "internalType": "uint256",
          "name": "tokenId",
          "type": "uint256"
        }
      ],
      "name": "Approval",
      "type": "event"
    },
    {
      "anonymous": false,
      "inputs": [
        {
          "indexed": true,
          "internalType": "address",
          "name": "owner",
          "type": "address"
        },
        {
          "indexed": true,
          "internalType": "address",
          "name": "operator",
          "type": "address"
        },
        {
          "indexed": false,
          "internalType": "bool",
          "name": "approved",
          "type": "bool"
        }
      ],
      "name": "ApprovalForAll",
      "type": "event"
    },
    {
      "anonymous": false,
      "inputs": [
        {
          "indexed": false,
          "internalType": "address",
          "name": "nowMinter",
          "type": "address"
        }
      ],
      "name": "NewProofMade",
      "type": "event"
    },
    {
      "anonymous": false,
      "inputs": [
        {
          "indexed": false,
          "internalType": "uint256",
          "name": "nullifierHash",
          "type": "uint256"
        }
      ],
      "name": "NullifierHashAdded",
      "type": "event"
    },
    {
      "anonymous": false,
      "inputs": [
        {
          "indexed": true,
          "internalType": "address",
          "name": "previousOwner",
          "type": "address"
        },
        {
          "indexed": true,
          "internalType": "address",
          "name": "newOwner",
          "type": "address"
        }
      ],
      "name": "OwnershipTransferred",
      "type": "event"
    },
    {
      "anonymous": false,
      "inputs": [
        {
          "indexed": true,
          "internalType": "address",
          "name": "from",
          "type": "address"
        },
        {
          "indexed": true,
          "internalType": "address",
          "name": "to",
          "type": "address"
        },
        {
          "indexed": true,
          "internalType": "uint256",
          "name": "tokenId",
          "type": "uint256"
        }
      ],
      "name": "Transfer",
      "type": "event"
    },
    {
      "inputs": [
        {
          "internalType": "address",
          "name": "to",
          "type": "address"
        },
        {
          "internalType": "uint256",
          "name": "tokenId",
          "type": "uint256"
        }
      ],
      "name": "approve",
      "outputs": [],
      "stateMutability": "nonpayable",
      "type": "function"
    },
    {
      "inputs": [
        {
          "internalType": "address",
          "name": "owner",
          "type": "address"
        }
      ],
      "name": "balanceOf",
      "outputs": [
        {
          "internalType": "uint256",
          "name": "",
          "type": "uint256"
        }
      ],
      "stateMutability": "view",
      "type": "function"
    },
    {
      "inputs": [
        {
          "internalType": "uint256",
          "name": "tokenId",
          "type": "uint256"
        }
      ],
      "name": "getApproved",
      "outputs": [
        {
          "internalType": "address",
          "name": "",
          "type": "address"
        }
      ],
      "stateMutability": "view",
      "type": "function"
    },
    {
      "inputs": [
        {
          "internalType": "address",
          "name": "owner",
          "type": "address"
        },
        {
          "internalType": "address",
          "name": "operator",
          "type": "address"
        }
      ],
      "name": "isApprovedForAll",
      "outputs": [
        {
          "internalType": "bool",
          "name": "",
          "type": "bool"
        }
      ],
      "stateMutability": "view",
      "type": "function"
    },
    {
      "inputs": [
        {
          "internalType": "bytes32",
          "name": "_greeting",
          "type": "bytes32"
        },
        {
          "internalType": "uint256",
          "name": "_nullifierHash",
          "type": "uint256"
        },
        {
          "internalType": "uint256[8]",
          "name": "_proof",
          "type": "uint256[8]"
        }
      ],
      "name": "mint",
      "outputs": [],
      "stateMutability": "nonpayable",
      "type": "function"
    },
    {
      "inputs": [],
      "name": "name",
      "outputs": [
        {
          "internalType": "string",
          "name": "",
          "type": "string"
        }
      ],
      "stateMutability": "view",
      "type": "function"
    },
    {
      "inputs": [],
      "name": "owner",
      "outputs": [
        {
          "internalType": "address",
          "name": "",
          "type": "address"
        }
      ],
      "stateMutability": "view",
      "type": "function"
    },
    {
      "inputs": [
        {
          "internalType": "uint256",
          "name": "tokenId",
          "type": "uint256"
        }
      ],
      "name": "ownerOf",
      "outputs": [
        {
          "internalType": "address",
          "name": "",
          "type": "address"
        }
      ],
      "stateMutability": "view",
      "type": "function"
    },
    {
      "inputs": [],
      "name": "renounceOwnership",
      "outputs": [],
      "stateMutability": "nonpayable",
      "type": "function"
    },
    {
      "inputs": [
        {
          "internalType": "address",
          "name": "from",
          "type": "address"
        },
        {
          "internalType": "address",
          "name": "to",
          "type": "address"
        },
        {
          "internalType": "uint256",
          "name": "tokenId",
          "type": "uint256"
        }
      ],
      "name": "safeTransferFrom",
      "outputs": [],
      "stateMutability": "nonpayable",
      "type": "function"
    },
    {
      "inputs": [
        {
          "internalType": "address",
          "name": "from",
          "type": "address"
        },
        {
          "internalType": "address",
          "name": "to",
          "type": "address"
        },
        {
          "internalType": "uint256",
          "name": "tokenId",
          "type": "uint256"
        },
        {
          "internalType": "bytes",
          "name": "_data",
          "type": "bytes"
        }
      ],
      "name": "safeTransferFrom",
      "outputs": [],
      "stateMutability": "nonpayable",
      "type": "function"
    },
    {
      "inputs": [
        {
          "internalType": "address",
          "name": "operator",
          "type": "address"
        },
        {
          "internalType": "bool",
          "name": "approved",
          "type": "bool"
        }
      ],
      "name": "setApprovalForAll",
      "outputs": [],
      "stateMutability": "nonpayable",
      "type": "function"
    },
    {
      "inputs": [
        {
          "internalType": "bytes4",
          "name": "interfaceId",
          "type": "bytes4"
        }
      ],
      "name": "supportsInterface",
      "outputs": [
        {
          "internalType": "bool",
          "name": "",
          "type": "bool"
        }
      ],
      "stateMutability": "view",
      "type": "function"
    },
    {
      "inputs": [],
      "name": "symbol",
      "outputs": [
        {
          "internalType": "string",
          "name": "",
          "type": "string"
        }
      ],
      "stateMutability": "view",
      "type": "function"
    },
    {
      "inputs": [
        {
          "internalType": "uint256",
          "name": "tokenId",
          "type": "uint256"
        }
      ],
      "name": "tokenURI",
      "outputs": [
        {
          "internalType": "string",
          "name": "",
          "type": "string"
        }
      ],
      "stateMutability": "view",
      "type": "function"
    },
    {
      "inputs": [
        {
          "internalType": "address",
          "name": "from",
          "type": "address"
        },
        {
          "internalType": "address",
          "name": "to",
          "type": "address"
        },
        {
          "internalType": "uint256",
          "name": "tokenId",
          "type": "uint256"
        }
      ],
      "name": "transferFrom",
      "outputs": [],
      "stateMutability": "nonpayable",
      "type": "function"
    },
    {
      "inputs": [
        {
          "internalType": "address",
          "name": "newOwner",
          "type": "address"
        }
      ],
      "name": "transferOwnership",
      "outputs": [],
      "stateMutability": "nonpayable",
      "type": "function"
    },
    {
      "inputs": [],
      "name": "treeRootHash",
      "outputs": [
        {
          "internalType": "uint256",
          "name": "",
          "type": "uint256"
        }
      ],
      "stateMutability": "view",
      "type": "function"
    },
    {
      "inputs": [],
      "name": "verifier",
      "outputs": [
        {
          "internalType": "contract IVerifier",
          "name": "",
          "type": "address"
        }
      ],
      "stateMutability": "view",
      "type": "function"
    }
  ],
  "bytecode": "0x60806040523480156200001157600080fd5b50604051620038a5380380620038a58339818101604052810190620000379190620002f3565b6040518060400160405280601181526020017f4461726b20466f726573742050726f6f660000000000000000000000000000008152506040518060400160405280600581526020017f50524f4f460000000000000000000000000000000000000000000000000000008152508160009080519060200190620000bb92919062000215565b508060019080519060200190620000d492919062000215565b505050620000f7620000eb6200014760201b60201c565b6200014f60201b60201c565b8160098190555080600a60006101000a81548173ffffffffffffffffffffffffffffffffffffffff021916908373ffffffffffffffffffffffffffffffffffffffff16021790555050506200040b565b600033905090565b6000600760009054906101000a900473ffffffffffffffffffffffffffffffffffffffff16905081600760006101000a81548173ffffffffffffffffffffffffffffffffffffffff021916908373ffffffffffffffffffffffffffffffffffffffff1602179055508173ffffffffffffffffffffffffffffffffffffffff168173ffffffffffffffffffffffffffffffffffffffff167f8be0079c531659141344cd1fd0a4f28419497f9722a3daafe3b4186f6b6457e060405160405180910390a35050565b828054620002239062000372565b90600052602060002090601f01602090048101928262000247576000855562000293565b82601f106200026257805160ff191683800117855562000293565b8280016001018555821562000293579182015b828111156200029257825182559160200191906001019062000275565b5b509050620002a29190620002a6565b5090565b5b80821115620002c1576000816000905550600101620002a7565b5090565b600081519050620002d681620003d7565b92915050565b600081519050620002ed81620003f1565b92915050565b600080604083850312156200030757600080fd5b60006200031785828601620002dc565b92505060206200032a85828601620002c5565b9150509250929050565b6000620003418262000348565b9050919050565b600073ffffffffffffffffffffffffffffffffffffffff82169050919050565b6000819050919050565b600060028204905060018216806200038b57607f821691505b60208210811415620003a257620003a1620003a8565b5b50919050565b7f4e487b7100000000000000000000000000000000000000000000000000000000600052602260045260246000fd5b620003e28162000334565b8114620003ee57600080fd5b50565b620003fc8162000368565b81146200040857600080fd5b50565b61348a806200041b6000396000f3fe608060405234801561001057600080fd5b50600436106101215760003560e01c80636352211e116100ad578063a22cb46511610071578063a22cb465146102f6578063b88d4fde14610312578063c87b56dd1461032e578063e985e9c51461035e578063f2fde38b1461038e57610121565b80636352211e1461025057806370a0823114610280578063715018a6146102b05780638da5cb5b146102ba57806395d89b41146102d857610121565b806323b872dd116100f457806323b872dd146101c05780632b7ac3f3146101dc57806342842e0e146101fa578063447a257c1461021657806362e0bd691461023257610121565b806301ffc9a71461012657806306fdde0314610156578063081812fc14610174578063095ea7b3146101a4575b600080fd5b610140600480360381019061013b9190612171565b6103aa565b60405161014d91906127e0565b60405180910390f35b61015e61048c565b60405161016b9190612816565b60405180910390f35b61018e600480360381019061018991906121c3565b61051e565b60405161019b9190612732565b60405180910390f35b6101be60048036038101906101b991906120e5565b6105a3565b005b6101da60048036038101906101d59190611fdf565b6106bb565b005b6101e461071b565b6040516101f191906127fb565b60405180910390f35b610214600480360381019061020f9190611fdf565b610741565b005b610230600480360381019061022b9190612121565b610761565b005b61023a610866565b6040516102479190612a78565b60405180910390f35b61026a600480360381019061026591906121c3565b61086c565b6040516102779190612732565b60405180910390f35b61029a60048036038101906102959190611f7a565b61091e565b6040516102a79190612a78565b60405180910390f35b6102b86109d6565b005b6102c2610a5e565b6040516102cf9190612732565b60405180910390f35b6102e0610a88565b6040516102ed9190612816565b60405180910390f35b610310600480360381019061030b91906120a9565b610b1a565b005b61032c6004803603810190610327919061202e565b610b30565b005b610348600480360381019061034391906121c3565b610b92565b6040516103559190612816565b60405180910390f35b61037860048036038101906103739190611fa3565b610c39565b60405161038591906127e0565b60405180910390f35b6103a860048036038101906103a39190611f7a565b610ccd565b005b60007f80ac58cd000000000000000000000000000000000000000000000000000000007bffffffffffffffffffffffffffffffffffffffffffffffffffffffff1916827bffffffffffffffffffffffffffffffffffffffffffffffffffffffff1916148061047557507f5b5e139f000000000000000000000000000000000000000000000000000000007bffffffffffffffffffffffffffffffffffffffffffffffffffffffff1916827bffffffffffffffffffffffffffffffffffffffffffffffffffffffff1916145b80610485575061048482610dc5565b5b9050919050565b60606000805461049b90612d5d565b80601f01602080910402602001604051908101604052809291908181526020018280546104c790612d5d565b80156105145780601f106104e957610100808354040283529160200191610514565b820191906000526020600020905b8154815290600101906020018083116104f757829003601f168201915b5050505050905090565b600061052982610e2f565b610568576040517f08c379a000000000000000000000000000000000000000000000000000000000815260040161055f906129b8565b60405180910390fd5b6004600083815260200190815260200160002060009054906101000a900473ffffffffffffffffffffffffffffffffffffffff169050919050565b60006105ae8261086c565b90508073ffffffffffffffffffffffffffffffffffffffff168373ffffffffffffffffffffffffffffffffffffffff16141561061f576040517f08c379a000000000000000000000000000000000000000000000000000000000815260040161061690612a18565b60405180910390fd5b8073ffffffffffffffffffffffffffffffffffffffff1661063e610e9b565b73ffffffffffffffffffffffffffffffffffffffff16148061066d575061066c81610667610e9b565b610c39565b5b6106ac576040517f08c379a00000000000000000000000000000000000000000000000000000000081526004016106a390612938565b60405180910390fd5b6106b68383610ea3565b505050565b6106cc6106c6610e9b565b82610f5c565b61070b576040517f08c379a000000000000000000000000000000000000000000000000000000000815260040161070290612a38565b60405180910390fd5b61071683838361103a565b505050565b600a60009054906101000a900473ffffffffffffffffffffffffffffffffffffffff1681565b61075c83838360405180602001604052806000815250610b30565b505050565b81600015156006600083815260200190815260200160002060009054906101000a900460ff161515146107c9576040517f08c379a00000000000000000000000000000000000000000000000000000000081526004016107c090612a58565b60405180910390fd5b6107fd846009548560095486600a60009054906101000a900473ffffffffffffffffffffffffffffffffffffffff166112a1565b610806836115fb565b7fef56e0b806b55205980f15ff96e7ff1a48ea430416f943193de7f6e62cf5a86b336040516108359190612732565b60405180910390a1610847600861162a565b60006108536008611640565b905061085f338261164e565b5050505050565b60095481565b6000806002600084815260200190815260200160002060009054906101000a900473ffffffffffffffffffffffffffffffffffffffff169050600073ffffffffffffffffffffffffffffffffffffffff168173ffffffffffffffffffffffffffffffffffffffff161415610915576040517f08c379a000000000000000000000000000000000000000000000000000000000815260040161090c90612978565b60405180910390fd5b80915050919050565b60008073ffffffffffffffffffffffffffffffffffffffff168273ffffffffffffffffffffffffffffffffffffffff16141561098f576040517f08c379a000000000000000000000000000000000000000000000000000000000815260040161098690612958565b60405180910390fd5b600360008373ffffffffffffffffffffffffffffffffffffffff1673ffffffffffffffffffffffffffffffffffffffff168152602001908152602001600020549050919050565b6109de610e9b565b73ffffffffffffffffffffffffffffffffffffffff166109fc610a5e565b73ffffffffffffffffffffffffffffffffffffffff1614610a52576040517f08c379a0000000000000000000000000000000000000000000000000000000008152600401610a49906129d8565b60405180910390fd5b610a5c6000611828565b565b6000600760009054906101000a900473ffffffffffffffffffffffffffffffffffffffff16905090565b606060018054610a9790612d5d565b80601f0160208091040260200160405190810160405280929190818152602001828054610ac390612d5d565b8015610b105780601f10610ae557610100808354040283529160200191610b10565b820191906000526020600020905b815481529060010190602001808311610af357829003601f168201915b5050505050905090565b610b2c610b25610e9b565b83836118ee565b5050565b610b41610b3b610e9b565b83610f5c565b610b80576040517f08c379a0000000000000000000000000000000000000000000000000000000008152600401610b7790612a38565b60405180910390fd5b610b8c84848484611a5b565b50505050565b6060610b9d82610e2f565b610bdc576040517f08c379a0000000000000000000000000000000000000000000000000000000008152600401610bd3906129f8565b60405180910390fd5b6000610be6611ab7565b90506000815111610c065760405180602001604052806000815250610c31565b80610c1084611ace565b604051602001610c2192919061270e565b6040516020818303038152906040525b915050919050565b6000600560008473ffffffffffffffffffffffffffffffffffffffff1673ffffffffffffffffffffffffffffffffffffffff16815260200190815260200160002060008373ffffffffffffffffffffffffffffffffffffffff1673ffffffffffffffffffffffffffffffffffffffff16815260200190815260200160002060009054906101000a900460ff16905092915050565b610cd5610e9b565b73ffffffffffffffffffffffffffffffffffffffff16610cf3610a5e565b73ffffffffffffffffffffffffffffffffffffffff1614610d49576040517f08c379a0000000000000000000000000000000000000000000000000000000008152600401610d40906129d8565b60405180910390fd5b600073ffffffffffffffffffffffffffffffffffffffff168173ffffffffffffffffffffffffffffffffffffffff161415610db9576040517f08c379a0000000000000000000000000000000000000000000000000000000008152600401610db090612878565b60405180910390fd5b610dc281611828565b50565b60007f01ffc9a7000000000000000000000000000000000000000000000000000000007bffffffffffffffffffffffffffffffffffffffffffffffffffffffff1916827bffffffffffffffffffffffffffffffffffffffffffffffffffffffff1916149050919050565b60008073ffffffffffffffffffffffffffffffffffffffff166002600084815260200190815260200160002060009054906101000a900473ffffffffffffffffffffffffffffffffffffffff1673ffffffffffffffffffffffffffffffffffffffff1614159050919050565b600033905090565b816004600083815260200190815260200160002060006101000a81548173ffffffffffffffffffffffffffffffffffffffff021916908373ffffffffffffffffffffffffffffffffffffffff160217905550808273ffffffffffffffffffffffffffffffffffffffff16610f168361086c565b73ffffffffffffffffffffffffffffffffffffffff167f8c5be1e5ebec7d5bd14f71427d1e84f3dd0314c0f7b2291e5b200ac8c7c3b92560405160405180910390a45050565b6000610f6782610e2f565b610fa6576040517f08c379a0000000000000000000000000000000000000000000000000000000008152600401610f9d90612918565b60405180910390fd5b6000610fb18361086c565b90508073ffffffffffffffffffffffffffffffffffffffff168473ffffffffffffffffffffffffffffffffffffffff161480610ff35750610ff28185610c39565b5b8061103157508373ffffffffffffffffffffffffffffffffffffffff166110198461051e565b73ffffffffffffffffffffffffffffffffffffffff16145b91505092915050565b8273ffffffffffffffffffffffffffffffffffffffff1661105a8261086c565b73ffffffffffffffffffffffffffffffffffffffff16146110b0576040517f08c379a00000000000000000000000000000000000000000000000000000000081526004016110a790612898565b60405180910390fd5b600073ffffffffffffffffffffffffffffffffffffffff168273ffffffffffffffffffffffffffffffffffffffff161415611120576040517f08c379a0000000000000000000000000000000000000000000000000000000008152600401611117906128d8565b60405180910390fd5b61112b838383611c7b565b611136600082610ea3565b6001600360008573ffffffffffffffffffffffffffffffffffffffff1673ffffffffffffffffffffffffffffffffffffffff16815260200190815260200160002060008282546111869190612c45565b925050819055506001600360008473ffffffffffffffffffffffffffffffffffffffff1673ffffffffffffffffffffffffffffffffffffffff16815260200190815260200160002060008282546111dd9190612bbe565b92505081905550816002600083815260200190815260200160002060006101000a81548173ffffffffffffffffffffffffffffffffffffffff021916908373ffffffffffffffffffffffffffffffffffffffff160217905550808273ffffffffffffffffffffffffffffffffffffffff168473ffffffffffffffffffffffffffffffffffffffff167fddf252ad1be2c89b69c2b068fc378daa952ba7f163c4a11628f55a4df523b3ef60405160405180910390a461129c838383611c80565b505050565b6006600085815260200190815260200160002060009054906101000a900460ff1615611302576040517f08c379a00000000000000000000000000000000000000000000000000000000081526004016112f990612838565b60405180910390fd5b600061130d87611c85565b90508173ffffffffffffffffffffffffffffffffffffffff16635fe8c13b604051806040016040528086600060088110611370577f4e487b7100000000000000000000000000000000000000000000000000000000600052603260045260246000fd5b60200201358152602001866001600881106113b4577f4e487b7100000000000000000000000000000000000000000000000000000000600052603260045260246000fd5b6020020135815250604051806040016040528060405180604001604052808960026008811061140c577f4e487b7100000000000000000000000000000000000000000000000000000000600052603260045260246000fd5b6020020135815260200189600360088110611450577f4e487b7100000000000000000000000000000000000000000000000000000000600052603260045260246000fd5b602002013581525081526020016040518060400160405280896004600881106114a2577f4e487b7100000000000000000000000000000000000000000000000000000000600052603260045260246000fd5b60200201358152602001896005600881106114e6577f4e487b7100000000000000000000000000000000000000000000000000000000600052603260045260246000fd5b6020020135815250815250604051806040016040528088600660088110611536577f4e487b7100000000000000000000000000000000000000000000000000000000600052603260045260246000fd5b602002013581526020018860076008811061157a577f4e487b7100000000000000000000000000000000000000000000000000000000600052603260045260246000fd5b602002013581525060405180608001604052808c81526020018b81526020018781526020018a8152506040518563ffffffff1660e01b81526004016115c29493929190612799565b60006040518083038186803b1580156115da57600080fd5b505afa1580156115ee573d6000803e3d6000fd5b5050505050505050505050565b60016006600083815260200190815260200160002060006101000a81548160ff02191690831515021790555050565b6001816000016000828254019250508190555050565b600081600001549050919050565b600073ffffffffffffffffffffffffffffffffffffffff168273ffffffffffffffffffffffffffffffffffffffff1614156116be576040517f08c379a00000000000000000000000000000000000000000000000000000000081526004016116b590612998565b60405180910390fd5b6116c781610e2f565b15611707576040517f08c379a00000000000000000000000000000000000000000000000000000000081526004016116fe906128b8565b60405180910390fd5b61171360008383611c7b565b6001600360008473ffffffffffffffffffffffffffffffffffffffff1673ffffffffffffffffffffffffffffffffffffffff16815260200190815260200160002060008282546117639190612bbe565b92505081905550816002600083815260200190815260200160002060006101000a81548173ffffffffffffffffffffffffffffffffffffffff021916908373ffffffffffffffffffffffffffffffffffffffff160217905550808273ffffffffffffffffffffffffffffffffffffffff16600073ffffffffffffffffffffffffffffffffffffffff167fddf252ad1be2c89b69c2b068fc378daa952ba7f163c4a11628f55a4df523b3ef60405160405180910390a461182460008383611c80565b5050565b6000600760009054906101000a900473ffffffffffffffffffffffffffffffffffffffff16905081600760006101000a81548173ffffffffffffffffffffffffffffffffffffffff021916908373ffffffffffffffffffffffffffffffffffffffff1602179055508173ffffffffffffffffffffffffffffffffffffffff168173ffffffffffffffffffffffffffffffffffffffff167f8be0079c531659141344cd1fd0a4f28419497f9722a3daafe3b4186f6b6457e060405160405180910390a35050565b8173ffffffffffffffffffffffffffffffffffffffff168373ffffffffffffffffffffffffffffffffffffffff16141561195d576040517f08c379a0000000000000000000000000000000000000000000000000000000008152600401611954906128f8565b60405180910390fd5b80600560008573ffffffffffffffffffffffffffffffffffffffff1673ffffffffffffffffffffffffffffffffffffffff16815260200190815260200160002060008473ffffffffffffffffffffffffffffffffffffffff1673ffffffffffffffffffffffffffffffffffffffff16815260200190815260200160002060006101000a81548160ff0219169083151502179055508173ffffffffffffffffffffffffffffffffffffffff168373ffffffffffffffffffffffffffffffffffffffff167f17307eab39ab6107e8899845ad3d59bd9653f200f220920489ca2b5937696c3183604051611a4e91906127e0565b60405180910390a3505050565b611a6684848461103a565b611a7284848484611cbc565b611ab1576040517f08c379a0000000000000000000000000000000000000000000000000000000008152600401611aa890612858565b60405180910390fd5b50505050565b606060405180602001604052806000815250905090565b60606000821415611b16576040518060400160405280600181526020017f30000000000000000000000000000000000000000000000000000000000000008152509050611c76565b600082905060005b60008214611b48578080611b3190612dc0565b915050600a82611b419190612c14565b9150611b1e565b60008167ffffffffffffffff811115611b8a577f4e487b7100000000000000000000000000000000000000000000000000000000600052604160045260246000fd5b6040519080825280601f01601f191660200182016040528015611bbc5781602001600182028036833780820191505090505b5090505b60008514611c6f57600182611bd59190612c45565b9150600a85611be49190612e13565b6030611bf09190612bbe565b60f81b818381518110611c2c577f4e487b7100000000000000000000000000000000000000000000000000000000600052603260045260246000fd5b60200101907effffffffffffffffffffffffffffffffffffffffffffffffffffffffffffff1916908160001a905350600a85611c689190612c14565b9450611bc0565b8093505050505b919050565b505050565b505050565b6000600882604051602001611c9a91906126f3565b6040516020818303038152906040528051906020012060001c901c9050919050565b6000611cdd8473ffffffffffffffffffffffffffffffffffffffff16611e53565b15611e46578373ffffffffffffffffffffffffffffffffffffffff1663150b7a02611d06610e9b565b8786866040518563ffffffff1660e01b8152600401611d28949392919061274d565b602060405180830381600087803b158015611d4257600080fd5b505af1925050508015611d7357506040513d601f19601f82011682018060405250810190611d70919061219a565b60015b611df6573d8060008114611da3576040519150601f19603f3d011682016040523d82523d6000602084013e611da8565b606091505b50600081511415611dee576040517f08c379a0000000000000000000000000000000000000000000000000000000008152600401611de590612858565b60405180910390fd5b805181602001fd5b63150b7a0260e01b7bffffffffffffffffffffffffffffffffffffffffffffffffffffffff1916817bffffffffffffffffffffffffffffffffffffffffffffffffffffffff191614915050611e4b565b600190505b949350505050565b6000808273ffffffffffffffffffffffffffffffffffffffff163b119050919050565b6000611e89611e8484612ab8565b612a93565b905082815260208101848484011115611ea157600080fd5b611eac848285612d1b565b509392505050565b600081359050611ec3816133e1565b92915050565b600081905082602060080282011115611ee157600080fd5b92915050565b600081359050611ef6816133f8565b92915050565b600081359050611f0b8161340f565b92915050565b600081359050611f2081613426565b92915050565b600081519050611f3581613426565b92915050565b600082601f830112611f4c57600080fd5b8135611f5c848260208601611e76565b91505092915050565b600081359050611f748161343d565b92915050565b600060208284031215611f8c57600080fd5b6000611f9a84828501611eb4565b91505092915050565b60008060408385031215611fb657600080fd5b6000611fc485828601611eb4565b9250506020611fd585828601611eb4565b9150509250929050565b600080600060608486031215611ff457600080fd5b600061200286828701611eb4565b935050602061201386828701611eb4565b925050604061202486828701611f65565b9150509250925092565b6000806000806080858703121561204457600080fd5b600061205287828801611eb4565b945050602061206387828801611eb4565b935050604061207487828801611f65565b925050606085013567ffffffffffffffff81111561209157600080fd5b61209d87828801611f3b565b91505092959194509250565b600080604083850312156120bc57600080fd5b60006120ca85828601611eb4565b92505060206120db85828601611ee7565b9150509250929050565b600080604083850312156120f857600080fd5b600061210685828601611eb4565b925050602061211785828601611f65565b9150509250929050565b6000806000610140848603121561213757600080fd5b600061214586828701611efc565b935050602061215686828701611f65565b925050604061216786828701611ec9565b9150509250925092565b60006020828403121561218357600080fd5b600061219184828501611f11565b91505092915050565b6000602082840312156121ac57600080fd5b60006121ba84828501611f26565b91505092915050565b6000602082840312156121d557600080fd5b60006121e384828501611f65565b91505092915050565b60006121f88383612282565b60408301905092915050565b600061221083836126d5565b60208301905092915050565b61222581612c79565b82525050565b61223481612b07565b61223e8184612b65565b925061224982612ae9565b8060005b8381101561227a57815161226187826121ec565b965061226c83612b3e565b92505060018101905061224d565b505050505050565b61228b81612b12565b6122958184612b70565b92506122a082612af3565b8060005b838110156122d15781516122b88782612204565b96506122c383612b4b565b9250506001810190506122a4565b505050505050565b6122e281612b12565b6122ec8184612b7b565b92506122f782612af3565b8060005b8381101561232857815161230f8782612204565b965061231a83612b4b565b9250506001810190506122fb565b505050505050565b61233981612b1d565b6123438184612b86565b925061234e82612afd565b8060005b8381101561237f5781516123668782612204565b965061237183612b58565b925050600181019050612352565b505050505050565b61239081612c8b565b82525050565b6123a76123a282612c97565b612e09565b82525050565b60006123b882612b28565b6123c28185612b91565b93506123d2818560208601612d2a565b6123db81612f00565b840191505092915050565b6123ef81612cf7565b82525050565b600061240082612b33565b61240a8185612ba2565b935061241a818560208601612d2a565b61242381612f00565b840191505092915050565b600061243982612b33565b6124438185612bb3565b9350612453818560208601612d2a565b80840191505092915050565b600061246c603683612ba2565b915061247782612f11565b604082019050919050565b600061248f603283612ba2565b915061249a82612f60565b604082019050919050565b60006124b2602683612ba2565b91506124bd82612faf565b604082019050919050565b60006124d5602583612ba2565b91506124e082612ffe565b604082019050919050565b60006124f8601c83612ba2565b91506125038261304d565b602082019050919050565b600061251b602483612ba2565b915061252682613076565b604082019050919050565b600061253e601983612ba2565b9150612549826130c5565b602082019050919050565b6000612561602c83612ba2565b915061256c826130ee565b604082019050919050565b6000612584603883612ba2565b915061258f8261313d565b604082019050919050565b60006125a7602a83612ba2565b91506125b28261318c565b604082019050919050565b60006125ca602983612ba2565b91506125d5826131db565b604082019050919050565b60006125ed602083612ba2565b91506125f88261322a565b602082019050919050565b6000612610602c83612ba2565b915061261b82613253565b604082019050919050565b6000612633602083612ba2565b915061263e826132a2565b602082019050919050565b6000612656602f83612ba2565b9150612661826132cb565b604082019050919050565b6000612679602183612ba2565b91506126848261331a565b604082019050919050565b600061269c603183612ba2565b91506126a782613369565b604082019050919050565b60006126bf601383612ba2565b91506126ca826133b8565b602082019050919050565b6126de81612ced565b82525050565b6126ed81612ced565b82525050565b60006126ff8284612396565b60208201915081905092915050565b600061271a828561242e565b9150612726828461242e565b91508190509392505050565b6000602082019050612747600083018461221c565b92915050565b6000608082019050612762600083018761221c565b61276f602083018661221c565b61277c60408301856126e4565b818103606083015261278e81846123ad565b905095945050505050565b6000610180820190506127af60008301876122d9565b6127bc604083018661222b565b6127c960c08301856122d9565b6127d7610100830184612330565b95945050505050565b60006020820190506127f56000830184612387565b92915050565b600060208201905061281060008301846123e6565b92915050565b6000602082019050818103600083015261283081846123f5565b905092915050565b600060208201905081810360008301526128518161245f565b9050919050565b6000602082019050818103600083015261287181612482565b9050919050565b60006020820190508181036000830152612891816124a5565b9050919050565b600060208201905081810360008301526128b1816124c8565b9050919050565b600060208201905081810360008301526128d1816124eb565b9050919050565b600060208201905081810360008301526128f18161250e565b9050919050565b6000602082019050818103600083015261291181612531565b9050919050565b6000602082019050818103600083015261293181612554565b9050919050565b6000602082019050818103600083015261295181612577565b9050919050565b600060208201905081810360008301526129718161259a565b9050919050565b60006020820190508181036000830152612991816125bd565b9050919050565b600060208201905081810360008301526129b1816125e0565b9050919050565b600060208201905081810360008301526129d181612603565b9050919050565b600060208201905081810360008301526129f181612626565b9050919050565b60006020820190508181036000830152612a1181612649565b9050919050565b60006020820190508181036000830152612a318161266c565b9050919050565b60006020820190508181036000830152612a518161268f565b9050919050565b60006020820190508181036000830152612a71816126b2565b9050919050565b6000602082019050612a8d60008301846126e4565b92915050565b6000612a9d612aae565b9050612aa98282612d8f565b919050565b6000604051905090565b600067ffffffffffffffff821115612ad357612ad2612ed1565b5b612adc82612f00565b9050602081019050919050565b6000819050919050565b6000819050919050565b6000819050919050565b600060029050919050565b600060029050919050565b600060049050919050565b600081519050919050565b600081519050919050565b6000602082019050919050565b6000602082019050919050565b6000602082019050919050565b600081905092915050565b600081905092915050565b600081905092915050565b600081905092915050565b600082825260208201905092915050565b600082825260208201905092915050565b600081905092915050565b6000612bc982612ced565b9150612bd483612ced565b9250827fffffffffffffffffffffffffffffffffffffffffffffffffffffffffffffffff03821115612c0957612c08612e44565b5b828201905092915050565b6000612c1f82612ced565b9150612c2a83612ced565b925082612c3a57612c39612e73565b5b828204905092915050565b6000612c5082612ced565b9150612c5b83612ced565b925082821015612c6e57612c6d612e44565b5b828203905092915050565b6000612c8482612ccd565b9050919050565b60008115159050919050565b6000819050919050565b60007fffffffff0000000000000000000000000000000000000000000000000000000082169050919050565b600073ffffffffffffffffffffffffffffffffffffffff82169050919050565b6000819050919050565b6000612d0282612d09565b9050919050565b6000612d1482612ccd565b9050919050565b82818337600083830152505050565b60005b83811015612d48578082015181840152602081019050612d2d565b83811115612d57576000848401525b50505050565b60006002820490506001821680612d7557607f821691505b60208210811415612d8957612d88612ea2565b5b50919050565b612d9882612f00565b810181811067ffffffffffffffff82111715612db757612db6612ed1565b5b80604052505050565b6000612dcb82612ced565b91507fffffffffffffffffffffffffffffffffffffffffffffffffffffffffffffffff821415612dfe57612dfd612e44565b5b600182019050919050565b6000819050919050565b6000612e1e82612ced565b9150612e2983612ced565b925082612e3957612e38612e73565b5b828206905092915050565b7f4e487b7100000000000000000000000000000000000000000000000000000000600052601160045260246000fd5b7f4e487b7100000000000000000000000000000000000000000000000000000000600052601260045260246000fd5b7f4e487b7100000000000000000000000000000000000000000000000000000000600052602260045260246000fd5b7f4e487b7100000000000000000000000000000000000000000000000000000000600052604160045260246000fd5b6000601f19601f8301169050919050565b7f53656d6170686f7265436f72653a20796f752063616e6e6f742075736520746860008201527f652073616d65206e756c6c696669657220747769636500000000000000000000602082015250565b7f4552433732313a207472616e7366657220746f206e6f6e20455243373231526560008201527f63656976657220696d706c656d656e7465720000000000000000000000000000602082015250565b7f4f776e61626c653a206e6577206f776e657220697320746865207a65726f206160008201527f6464726573730000000000000000000000000000000000000000000000000000602082015250565b7f4552433732313a207472616e736665722066726f6d20696e636f72726563742060008201527f6f776e6572000000000000000000000000000000000000000000000000000000602082015250565b7f4552433732313a20746f6b656e20616c7265616479206d696e74656400000000600082015250565b7f4552433732313a207472616e7366657220746f20746865207a65726f2061646460008201527f7265737300000000000000000000000000000000000000000000000000000000602082015250565b7f4552433732313a20617070726f766520746f2063616c6c657200000000000000600082015250565b7f4552433732313a206f70657261746f7220717565727920666f72206e6f6e657860008201527f697374656e7420746f6b656e0000000000000000000000000000000000000000602082015250565b7f4552433732313a20617070726f76652063616c6c6572206973206e6f74206f7760008201527f6e6572206e6f7220617070726f76656420666f7220616c6c0000000000000000602082015250565b7f4552433732313a2062616c616e636520717565727920666f7220746865207a6560008201527f726f206164647265737300000000000000000000000000000000000000000000602082015250565b7f4552433732313a206f776e657220717565727920666f72206e6f6e657869737460008201527f656e7420746f6b656e0000000000000000000000000000000000000000000000602082015250565b7f4552433732313a206d696e7420746f20746865207a65726f2061646472657373600082015250565b7f4552433732313a20617070726f76656420717565727920666f72206e6f6e657860008201527f697374656e7420746f6b656e0000000000000000000000000000000000000000602082015250565b7f4f776e61626c653a2063616c6c6572206973206e6f7420746865206f776e6572600082015250565b7f4552433732314d657461646174613a2055524920717565727920666f72206e6f60008201527f6e6578697374656e7420746f6b656e0000000000000000000000000000000000602082015250565b7f4552433732313a20617070726f76616c20746f2063757272656e74206f776e6560008201527f7200000000000000000000000000000000000000000000000000000000000000602082015250565b7f4552433732313a207472616e736665722063616c6c6572206973206e6f74206f60008201527f776e6572206e6f7220617070726f766564000000000000000000000000000000602082015250565b7f6f6e63652075736564206e756c6c696669657200000000000000000000000000600082015250565b6133ea81612c79565b81146133f557600080fd5b50565b61340181612c8b565b811461340c57600080fd5b50565b61341881612c97565b811461342357600080fd5b50565b61342f81612ca1565b811461343a57600080fd5b50565b61344681612ced565b811461345157600080fd5b5056fea264697066735822122049db8122542e9d8b0989102e595fe4124f446080e1fe1a0afa4524c44a05575764736f6c63430008040033",
  "linkReferences": {},
  "deployedLinkReferences": {}
}